{
  "address": "0x2008f60d06658293fb40C822d15cdA76B4C0325A",
  "abi": [
    {
      "inputs": [],
      "stateMutability": "nonpayable",
      "type": "constructor"
    },
    {
      "inputs": [],
      "name": "ApprovalCallerNotOwnerNorApproved",
      "type": "error"
    },
    {
      "inputs": [],
      "name": "ApprovalQueryForNonexistentToken",
      "type": "error"
    },
    {
      "inputs": [],
      "name": "ApprovalToCurrentOwner",
      "type": "error"
    },
    {
      "inputs": [],
      "name": "ApproveToCaller",
      "type": "error"
    },
    {
      "inputs": [],
      "name": "BalanceQueryForZeroAddress",
      "type": "error"
    },
    {
      "inputs": [],
      "name": "MintToZeroAddress",
      "type": "error"
    },
    {
      "inputs": [],
      "name": "MintZeroQuantity",
      "type": "error"
    },
    {
      "inputs": [
        {
          "internalType": "address",
          "name": "operator",
          "type": "address"
        }
      ],
      "name": "OperatorNotAllowed",
      "type": "error"
    },
    {
      "inputs": [],
      "name": "OwnerIndexOutOfBounds",
      "type": "error"
    },
    {
      "inputs": [],
      "name": "OwnerQueryForNonexistentToken",
      "type": "error"
    },
    {
      "inputs": [],
      "name": "TokenIndexOutOfBounds",
      "type": "error"
    },
    {
      "inputs": [],
      "name": "TransferCallerNotOwnerNorApproved",
      "type": "error"
    },
    {
      "inputs": [],
      "name": "TransferFromIncorrectOwner",
      "type": "error"
    },
    {
      "inputs": [],
      "name": "TransferToNonERC721ReceiverImplementer",
      "type": "error"
    },
    {
      "inputs": [],
      "name": "TransferToZeroAddress",
      "type": "error"
    },
    {
      "anonymous": false,
      "inputs": [
        {
          "indexed": true,
          "internalType": "address",
          "name": "owner",
          "type": "address"
        },
        {
          "indexed": true,
          "internalType": "address",
          "name": "approved",
          "type": "address"
        },
        {
          "indexed": true,
          "internalType": "uint256",
          "name": "tokenId",
          "type": "uint256"
        }
      ],
      "name": "Approval",
      "type": "event"
    },
    {
      "anonymous": false,
      "inputs": [
        {
          "indexed": true,
          "internalType": "address",
          "name": "owner",
          "type": "address"
        },
        {
          "indexed": true,
          "internalType": "address",
          "name": "operator",
          "type": "address"
        },
        {
          "indexed": false,
          "internalType": "bool",
          "name": "approved",
          "type": "bool"
        }
      ],
      "name": "ApprovalForAll",
      "type": "event"
    },
    {
      "anonymous": false,
      "inputs": [
        {
          "indexed": true,
          "internalType": "address",
          "name": "previousOwner",
          "type": "address"
        },
        {
          "indexed": true,
          "internalType": "address",
          "name": "newOwner",
          "type": "address"
        }
      ],
      "name": "OwnershipTransferred",
      "type": "event"
    },
    {
      "anonymous": false,
      "inputs": [
        {
          "indexed": true,
          "internalType": "address",
          "name": "from",
          "type": "address"
        },
        {
          "indexed": true,
          "internalType": "address",
          "name": "to",
          "type": "address"
        },
        {
          "indexed": true,
          "internalType": "uint256",
          "name": "tokenId",
          "type": "uint256"
        }
      ],
      "name": "Transfer",
      "type": "event"
    },
    {
      "anonymous": false,
      "inputs": [
        {
          "indexed": false,
          "internalType": "address",
          "name": "owner",
          "type": "address"
        },
        {
          "indexed": false,
          "internalType": "uint256",
          "name": "quantity",
          "type": "uint256"
        },
        {
          "indexed": false,
          "internalType": "uint256",
          "name": "totalSupply",
          "type": "uint256"
        }
      ],
      "name": "mintEvent",
      "type": "event"
    },
    {
      "inputs": [],
      "name": "MAX_NFT",
      "outputs": [
        {
          "internalType": "uint256",
          "name": "",
          "type": "uint256"
        }
      ],
      "stateMutability": "view",
      "type": "function"
    },
    {
      "inputs": [],
      "name": "MAX_PS_ADDRESS_TOKEN",
      "outputs": [
        {
          "internalType": "uint256",
          "name": "",
          "type": "uint256"
        }
      ],
      "stateMutability": "view",
      "type": "function"
    },
    {
      "inputs": [],
      "name": "OPERATOR_FILTER_REGISTRY",
      "outputs": [
        {
          "internalType": "contract IOperatorFilterRegistry",
          "name": "",
          "type": "address"
        }
      ],
      "stateMutability": "view",
      "type": "function"
    },
    {
      "inputs": [],
      "name": "PS_STAGE_LIMIT",
      "outputs": [
        {
          "internalType": "uint256",
          "name": "",
          "type": "uint256"
        }
      ],
      "stateMutability": "view",
      "type": "function"
    },
    {
      "inputs": [
        {
          "internalType": "address[]",
          "name": "_to",
          "type": "address[]"
        },
        {
          "internalType": "uint256[]",
          "name": "quantity",
          "type": "uint256[]"
        }
      ],
      "name": "airdrop",
      "outputs": [],
      "stateMutability": "nonpayable",
      "type": "function"
    },
    {
      "inputs": [],
      "name": "airdropQuantity",
      "outputs": [
        {
          "internalType": "uint256",
          "name": "",
          "type": "uint256"
        }
      ],
      "stateMutability": "view",
      "type": "function"
    },
    {
      "inputs": [
        {
          "internalType": "address",
          "name": "operator",
          "type": "address"
        },
        {
          "internalType": "uint256",
          "name": "tokenId",
          "type": "uint256"
        }
      ],
      "name": "approve",
      "outputs": [],
      "stateMutability": "nonpayable",
      "type": "function"
    },
    {
      "inputs": [
        {
          "internalType": "address",
          "name": "owner",
          "type": "address"
        }
      ],
      "name": "balanceOf",
      "outputs": [
        {
          "internalType": "uint256",
          "name": "",
          "type": "uint256"
        }
      ],
      "stateMutability": "view",
      "type": "function"
    },
    {
      "inputs": [
        {
          "internalType": "address",
          "name": "account",
          "type": "address"
        },
        {
          "internalType": "uint256",
          "name": "id",
          "type": "uint256"
        }
      ],
      "name": "burn",
      "outputs": [],
      "stateMutability": "nonpayable",
      "type": "function"
    },
    {
      "inputs": [
        {
          "internalType": "uint256",
          "name": "tokenId",
          "type": "uint256"
        }
      ],
      "name": "getApproved",
      "outputs": [
        {
          "internalType": "address",
          "name": "",
          "type": "address"
        }
      ],
      "stateMutability": "view",
      "type": "function"
    },
    {
      "inputs": [],
      "name": "hasBurnStarted",
      "outputs": [
        {
          "internalType": "bool",
          "name": "",
          "type": "bool"
        }
      ],
      "stateMutability": "view",
      "type": "function"
    },
    {
      "inputs": [
        {
          "internalType": "address",
          "name": "",
          "type": "address"
        }
      ],
      "name": "hasPSMinted",
      "outputs": [
        {
          "internalType": "uint256",
          "name": "",
          "type": "uint256"
        }
      ],
      "stateMutability": "view",
      "type": "function"
    },
    {
      "inputs": [],
      "name": "hasPublicSaleStarted",
      "outputs": [
        {
          "internalType": "bool",
          "name": "",
          "type": "bool"
        }
      ],
      "stateMutability": "view",
      "type": "function"
    },
    {
      "inputs": [
        {
          "internalType": "address",
          "name": "",
          "type": "address"
        }
      ],
      "name": "hasWLMinted",
      "outputs": [
        {
          "internalType": "uint256",
          "name": "",
          "type": "uint256"
        }
      ],
      "stateMutability": "view",
      "type": "function"
    },
    {
      "inputs": [],
      "name": "hasWhitelistSaleStarted",
      "outputs": [
        {
          "internalType": "bool",
          "name": "",
          "type": "bool"
        }
      ],
      "stateMutability": "view",
      "type": "function"
    },
    {
      "inputs": [
        {
          "internalType": "address",
          "name": "owner",
          "type": "address"
        },
        {
          "internalType": "address",
          "name": "operator",
          "type": "address"
        }
      ],
      "name": "isApprovedForAll",
      "outputs": [
        {
          "internalType": "bool",
          "name": "",
          "type": "bool"
        }
      ],
      "stateMutability": "view",
      "type": "function"
    },
    {
      "inputs": [
        {
          "internalType": "uint256",
          "name": "quantity",
          "type": "uint256"
        }
      ],
      "name": "mintNFT",
      "outputs": [],
      "stateMutability": "nonpayable",
      "type": "function"
    },
    {
      "inputs": [
        {
          "internalType": "uint256",
          "name": "quantity",
          "type": "uint256"
        },
        {
          "internalType": "uint256",
          "name": "maxQuantity",
          "type": "uint256"
        },
        {
          "internalType": "bytes",
          "name": "SIGNATURE",
          "type": "bytes"
        }
      ],
      "name": "mintWhitelist",
      "outputs": [],
      "stateMutability": "nonpayable",
      "type": "function"
    },
    {
      "inputs": [],
      "name": "name",
      "outputs": [
        {
          "internalType": "string",
          "name": "",
          "type": "string"
        }
      ],
      "stateMutability": "view",
      "type": "function"
    },
    {
      "inputs": [],
      "name": "owner",
      "outputs": [
        {
          "internalType": "address",
          "name": "",
          "type": "address"
        }
      ],
      "stateMutability": "view",
      "type": "function"
    },
    {
      "inputs": [
        {
          "internalType": "uint256",
          "name": "tokenId",
          "type": "uint256"
        }
      ],
      "name": "ownerOf",
      "outputs": [
        {
          "internalType": "address",
          "name": "",
          "type": "address"
        }
      ],
      "stateMutability": "view",
      "type": "function"
    },
    {
      "inputs": [],
      "name": "publicSaleTimestamp",
      "outputs": [
        {
          "internalType": "uint256",
          "name": "",
          "type": "uint256"
        }
      ],
      "stateMutability": "view",
      "type": "function"
    },
    {
      "inputs": [],
      "name": "renounceOwnership",
      "outputs": [],
      "stateMutability": "nonpayable",
      "type": "function"
    },
    {
      "inputs": [
        {
          "internalType": "address",
          "name": "from",
          "type": "address"
        },
        {
          "internalType": "address",
          "name": "to",
          "type": "address"
        },
        {
          "internalType": "uint256",
          "name": "tokenId",
          "type": "uint256"
        }
      ],
      "name": "safeTransferFrom",
      "outputs": [],
      "stateMutability": "nonpayable",
      "type": "function"
    },
    {
      "inputs": [
        {
          "internalType": "address",
          "name": "from",
          "type": "address"
        },
        {
          "internalType": "address",
          "name": "to",
          "type": "address"
        },
        {
          "internalType": "uint256",
          "name": "tokenId",
          "type": "uint256"
        },
        {
          "internalType": "bytes",
          "name": "data",
          "type": "bytes"
        }
      ],
      "name": "safeTransferFrom",
      "outputs": [],
      "stateMutability": "nonpayable",
      "type": "function"
    },
    {
      "inputs": [
        {
          "internalType": "address",
          "name": "operator",
          "type": "address"
        },
        {
          "internalType": "bool",
          "name": "approved",
          "type": "bool"
        }
      ],
      "name": "setApprovalForAll",
      "outputs": [],
      "stateMutability": "nonpayable",
      "type": "function"
    },
    {
      "inputs": [
        {
          "internalType": "uint256",
          "name": "_MAX_num",
          "type": "uint256"
        },
        {
          "internalType": "uint256",
          "name": "_PS_STAGE_LIMIT",
          "type": "uint256"
        },
        {
          "internalType": "uint256",
          "name": "_MAX_PS_ADDRESS_TOKEN",
          "type": "uint256"
        }
      ],
      "name": "setMAX_NFT",
      "outputs": [],
      "stateMutability": "nonpayable",
      "type": "function"
    },
    {
      "inputs": [
        {
          "internalType": "address",
          "name": "_signer",
          "type": "address"
        }
      ],
      "name": "setSigner",
      "outputs": [],
      "stateMutability": "nonpayable",
      "type": "function"
    },
    {
      "inputs": [
        {
          "internalType": "bool",
          "name": "_hasWhitelistSaleStarted",
          "type": "bool"
        },
        {
          "internalType": "uint256",
          "name": "_whitelistSaleTimestamp",
          "type": "uint256"
        },
        {
          "internalType": "bool",
          "name": "_hasPublicSaleStarted",
          "type": "bool"
        },
        {
          "internalType": "uint256",
          "name": "_publicSaleTimestamp",
          "type": "uint256"
        },
        {
          "internalType": "bool",
          "name": "_hasBurnStarted",
          "type": "bool"
        }
      ],
      "name": "setSwitch",
      "outputs": [],
      "stateMutability": "nonpayable",
      "type": "function"
    },
    {
      "inputs": [
        {
          "internalType": "string",
          "name": "_tokenURI",
          "type": "string"
        }
      ],
      "name": "setURI",
      "outputs": [],
      "stateMutability": "nonpayable",
      "type": "function"
    },
    {
      "inputs": [],
      "name": "signer",
      "outputs": [
        {
          "internalType": "address",
          "name": "",
          "type": "address"
        }
      ],
      "stateMutability": "view",
      "type": "function"
    },
    {
      "inputs": [],
      "name": "soldQuantity",
      "outputs": [
        {
          "internalType": "uint256",
          "name": "",
          "type": "uint256"
        }
      ],
      "stateMutability": "view",
      "type": "function"
    },
    {
      "inputs": [
        {
          "internalType": "bytes4",
          "name": "interfaceId",
          "type": "bytes4"
        }
      ],
      "name": "supportsInterface",
      "outputs": [
        {
          "internalType": "bool",
          "name": "",
          "type": "bool"
        }
      ],
      "stateMutability": "view",
      "type": "function"
    },
    {
      "inputs": [],
      "name": "symbol",
      "outputs": [
        {
          "internalType": "string",
          "name": "",
          "type": "string"
        }
      ],
      "stateMutability": "view",
      "type": "function"
    },
    {
      "inputs": [
        {
          "internalType": "uint256",
          "name": "index",
          "type": "uint256"
        }
      ],
      "name": "tokenByIndex",
      "outputs": [
        {
          "internalType": "uint256",
          "name": "",
          "type": "uint256"
        }
      ],
      "stateMutability": "view",
      "type": "function"
    },
    {
      "inputs": [
        {
          "internalType": "address",
          "name": "owner",
          "type": "address"
        },
        {
          "internalType": "uint256",
          "name": "index",
          "type": "uint256"
        }
      ],
      "name": "tokenOfOwnerByIndex",
      "outputs": [
        {
          "internalType": "uint256",
          "name": "",
          "type": "uint256"
        }
      ],
      "stateMutability": "view",
      "type": "function"
    },
    {
      "inputs": [
        {
          "internalType": "uint256",
          "name": "tokenId",
          "type": "uint256"
        }
      ],
      "name": "tokenURI",
      "outputs": [
        {
          "internalType": "string",
          "name": "",
          "type": "string"
        }
      ],
      "stateMutability": "view",
      "type": "function"
    },
    {
      "inputs": [],
      "name": "totalSupply",
      "outputs": [
        {
          "internalType": "uint256",
          "name": "",
          "type": "uint256"
        }
      ],
      "stateMutability": "view",
      "type": "function"
    },
    {
      "inputs": [
        {
          "internalType": "address",
          "name": "from",
          "type": "address"
        },
        {
          "internalType": "address",
          "name": "to",
          "type": "address"
        },
        {
          "internalType": "uint256",
          "name": "tokenId",
          "type": "uint256"
        }
      ],
      "name": "transferFrom",
      "outputs": [],
      "stateMutability": "nonpayable",
      "type": "function"
    },
    {
      "inputs": [
        {
          "internalType": "address",
          "name": "newOwner",
          "type": "address"
        }
      ],
      "name": "transferOwnership",
      "outputs": [],
      "stateMutability": "nonpayable",
      "type": "function"
    },
    {
      "inputs": [
        {
          "internalType": "uint256",
          "name": "maxQuantity",
          "type": "uint256"
        },
        {
          "internalType": "bytes",
          "name": "SIGNATURE",
          "type": "bytes"
        }
      ],
      "name": "verify",
      "outputs": [
        {
          "internalType": "bool",
          "name": "",
          "type": "bool"
        }
      ],
      "stateMutability": "view",
      "type": "function"
    },
    {
      "inputs": [],
      "name": "whitelistSaleTimestamp",
      "outputs": [
        {
          "internalType": "uint256",
          "name": "",
          "type": "uint256"
        }
      ],
      "stateMutability": "view",
      "type": "function"
    }
  ],
  "transactionHash": "0xc84808da792a5320e2f8490fd612c96e1feac443e036b2a024cd297df3e4b895",
  "args": [],
  "numDeployments": 2,
  "solcInputHash": "db38b34ee657144d3f3429f1eae70651",
  "bytecode": "0x610bb86008556101f46009556001600a556000600b819055600c556363f78d80600d819055600e55600f805462ffffff191690556101a0604052603361014081815290620031a76101603960109062000059908262000461565b50601180546001600160a01b031916735279246e3626cebe71a4c181382a50a71d2a41561790553480156200008d57600080fd5b50733cc6cdda760b79bafa08df41ecfa224f810dceb660016040518060400160405280601681526020017f776f6e6465726c616e645f6169637265617465333630000000000000000000008152506040518060400160405280600a81526020016915dbdb99195c9b185b9960b21b8152506040518060400160405280601681526020017f776f6e6465726c616e645f616963726561746533363000000000000000000000815250604051806040016040528060058152602001640312e302e360dc1b8152506200016c620001666200036860201b60201c565b6200036c565b815160209283012081519183019190912060e08290526101008190524660a0818152604080517f8b73c3c69bb8fe3d512ecc4cf759cc79239f7b179b0ffacaa9a75d522b39400f818801819052818301969096526060810194909452608080850193909352308483018190528151808603909301835260c09485019091528151919095012090529190915261012052600262000209838262000461565b50600362000218828262000461565b5050506daaeb6d7670e522a718067333cd4e3b1562000360578015620002ae57604051633e9f1edf60e11b81523060048201526001600160a01b03831660248201526daaeb6d7670e522a718067333cd4e90637d3e3dbe906044015b600060405180830381600087803b1580156200028f57600080fd5b505af1158015620002a4573d6000803e3d6000fd5b5050505062000360565b6001600160a01b03821615620002ff5760405163a0af290360e01b81523060048201526001600160a01b03831660248201526daaeb6d7670e522a718067333cd4e9063a0af29039060440162000274565b604051632210724360e11b81523060048201526daaeb6d7670e522a718067333cd4e90634420e48690602401600060405180830381600087803b1580156200034657600080fd5b505af11580156200035b573d6000803e3d6000fd5b505050505b50506200052d565b3390565b600080546001600160a01b038381166001600160a01b0319831681178455604051919092169283917f8be0079c531659141344cd1fd0a4f28419497f9722a3daafe3b4186f6b6457e09190a35050565b634e487b7160e01b600052604160045260246000fd5b600181811c90821680620003e757607f821691505b6020821081036200040857634e487b7160e01b600052602260045260246000fd5b50919050565b601f8211156200045c57600081815260208120601f850160051c81016020861015620004375750805b601f850160051c820191505b81811015620004585782815560010162000443565b5050505b505050565b81516001600160401b038111156200047d576200047d620003bc565b62000495816200048e8454620003d2565b846200040e565b602080601f831160018114620004cd5760008415620004b45750858301515b600019600386901b1c1916600185901b17855562000458565b600085815260208120601f198616915b82811015620004fe57888601518255948401946001909101908401620004dd565b50858210156200051d5787850151600019600388901b60f8161c191681555b5050505050600190811b01905550565b60805160a05160c05160e0516101005161012051612c2a6200057d6000396000611ddf01526000611e2e01526000611e0901526000611d6201526000611d8c01526000611db60152612c2a6000f3fe608060405234801561001057600080fd5b506004361061025e5760003560e01c8063672434821161014657806392642744116100c3578063c213be1811610087578063c213be1814610505578063c87b56dd14610518578063e6d7e1341461052b578063e985e9c514610534578063f2fde38b14610570578063fdd4b0f01461058357600080fd5b806392642744146104b157806395d89b41146104c45780639dc29fac146104cc578063a22cb465146104df578063b88d4fde146104f257600080fd5b806372b478591161010a57806372b47859146104685780637cdcc5121461047157806385852ce41461047a5780638da5cb5b1461048d57806391e299801461049e57600080fd5b8063672434821461041e5780636c19e783146104315780636fdaddf11461044457806370a082311461044d578063715018a61461046057600080fd5b806323b872dd116101df57806342842e0e116101a357806342842e0e146103a957806343774ebd146103bc5780634f6ccce7146103cf57806352e96828146103e257806353c27fd2146103eb5780636352211e1461040b57600080fd5b806323b872dd146103585780632f745c591461036b57806332a61f5f1461037e5780633da30a301461038b57806341f434341461039457600080fd5b8063081812fc11610226578063081812fc146102df578063095ea7b31461030a578063099c70711461031d57806318160ddd1461033d578063238ac9331461034557600080fd5b806301ffc9a71461026357806302a4e1871461028b57806302fe5305146102a057806306715ccb146102b357806306fdde03146102ca575b600080fd5b61027661027136600461244a565b610595565b60405190151581526020015b60405180910390f35b61029e610299366004612475565b610602565b005b61029e6102ae3660046124d4565b61064d565b6102bc600b5481565b604051908152602001610282565b6102d2610667565b6040516102829190612595565b6102f26102ed3660046125a8565b6106f9565b6040516001600160a01b039091168152602001610282565b61029e6103183660046125dd565b61073d565b6102bc61032b366004612607565b60126020526000908152604090205481565b6102bc610751565b6011546102f2906001600160a01b031681565b61029e610366366004612622565b610770565b6102bc6103793660046125dd565b61079b565b600f546102769060ff1681565b6102bc60095481565b6102f26daaeb6d7670e522a718067333cd4e81565b61029e6103b7366004612622565b61088f565b61029e6103ca366004612700565b6108b4565b6102bc6103dd3660046125a8565b610aac565b6102bc600d5481565b6102bc6103f9366004612607565b60136020526000908152604090205481565b6102f26104193660046125a8565b610b57565b61029e61042c366004612793565b610b69565b61029e61043f366004612607565b610d24565b6102bc60085481565b6102bc61045b366004612607565b610d9b565b61029e610de9565b6102bc600c5481565b6102bc600a5481565b6102766104883660046127fe565b610dfd565b6000546001600160a01b03166102f2565b600f546102769062010000900460ff1681565b61029e6104bf3660046125a8565b610eb7565b6102d2611148565b61029e6104da3660046125dd565b611157565b61029e6104ed366004612844565b611284565b61029e61050036600461287b565b611298565b61029e6105133660046128e2565b6112c5565b6102d26105263660046125a8565b6112db565b6102bc600e5481565b61027661054236600461290e565b6001600160a01b03918216600090815260076020908152604080832093909416825291909152205460ff1690565b61029e61057e366004612607565b611357565b600f5461027690610100900460ff1681565b60006001600160e01b031982166380ac58cd60e01b14806105c657506001600160e01b03198216635b5e139f60e01b145b806105e157506001600160e01b0319821663780e9d6360e01b145b806105fc57506301ffc9a760e01b6001600160e01b03198316145b92915050565b61060a6113d0565b600f8054600d95909555600e929092551515620100000262ff0000199215156101000261ff00199515159590951661ffff19909416939093179390931716179055565b6106556113d0565b60106106628284836129c9565b505050565b60606002805461067690612941565b80601f01602080910402602001604051908101604052809291908181526020018280546106a290612941565b80156106ef5780601f106106c4576101008083540402835291602001916106ef565b820191906000526020600020905b8154815290600101906020018083116106d257829003601f168201915b5050505050905090565b60006107048261142a565b610721576040516333d1c03960e21b815260040160405180910390fd5b506000908152600660205260409020546001600160a01b031690565b8161074781611460565b6106628383611519565b6001546001600160801b03600160801b82048116918116919091031690565b826001600160a01b038116331461078a5761078a33611460565b6107958484846115a1565b50505050565b60006107a683610d9b565b82106107c5576040516306ed618760e11b815260040160405180910390fd5b6001546001600160801b0316600080805b8381101561025e57600081815260046020908152604091829020825160608101845290546001600160a01b0381168252600160a01b81046001600160401b031692820192909252600160e01b90910460ff16158015928201929092529061083d5750610887565b80516001600160a01b03161561085257805192505b876001600160a01b0316836001600160a01b0316036108855786840361087e575093506105fc92505050565b6001909301925b505b6001016107d6565b826001600160a01b03811633146108a9576108a933611460565b6107958484846115ac565b600f5460ff1615156001146109075760405162461bcd60e51b815260206004820152601460248201527357484954454c4953545f4e4f545f41435449564560601b60448201526064015b60405180910390fd5b600d544210156109515760405162461bcd60e51b81526020600482015260156024820152744e4f545f494e5f57484954454c4953545f54494d4560581b60448201526064016108fe565b61095b8282610dfd565b6109a75760405162461bcd60e51b815260206004820152601a60248201527f4e4f545f454c494749424c455f464f545f57484954454c49535400000000000060448201526064016108fe565b6000831180156109d157503360009081526013602052604090205482906109ce90856115c7565b11155b610a1d5760405162461bcd60e51b815260206004820152601760248201527f455843454544535f4d41585f574c5f5155414e5449545900000000000000000060448201526064016108fe565b33600090815260136020526040902054610a3790846115c7565b33600081815260136020526040902091909155610a5490846115da565b7f9670c8b300c38cd3db8d3f9429dd902e67f418c4dd193e2497f06d20efc795603384610a7f610751565b604080516001600160a01b03909416845260208401929092529082015260600160405180910390a1505050565b6001546000906001600160801b031681805b82811015610b3d57600081815260046020908152604091829020825160608101845290546001600160a01b0381168252600160a01b81046001600160401b031692820192909252600160e01b90910460ff16151591810182905290610b3457858303610b2d5750949350505050565b6001909201915b50600101610abe565b506040516329c8c00760e21b815260040160405180910390fd5b6000610b62826115f4565b5192915050565b610b716113d0565b826000805b82811015610bb657848482818110610b9057610b90612a88565b9050602002013582610ba29190612ab4565b915080610bae81612ac7565b915050610b76565b5060085481610bc3610751565b610bcd9190612ab4565b1115610c0d5760405162461bcd60e51b815260206004820152600f60248201526e115610d1515114d7d3505617d39195608a1b60448201526064016108fe565b60005b82811015610d1b5781600b6000828254610c2a9190612ab4565b90915550610c789050878783818110610c4557610c45612a88565b9050602002016020810190610c5a9190612607565b868684818110610c6c57610c6c612a88565b905060200201356115da565b7f9670c8b300c38cd3db8d3f9429dd902e67f418c4dd193e2497f06d20efc79560878783818110610cab57610cab612a88565b9050602002016020810190610cc09190612607565b868684818110610cd257610cd2612a88565b90506020020135610ce1610751565b604080516001600160a01b03909416845260208401929092529082015260600160405180910390a180610d1381612ac7565b915050610c10565b50505050505050565b610d2c6113d0565b6001600160a01b038116610d795760405162461bcd60e51b815260206004820152601460248201527353455454494e475f5a45524f5f4144445245535360601b60448201526064016108fe565b601180546001600160a01b0319166001600160a01b0392909216919091179055565b60006001600160a01b038216610dc4576040516323d3ad8160e21b815260040160405180910390fd5b506001600160a01b03166000908152600560205260409020546001600160401b031690565b610df16113d0565b610dfb6000611718565b565b600080610e6e610e687f182854de6a51f3818344a7eb784b9d55c1e6d2d20c9f9aea309f5daaaaddfec1336040805160208101939093526001600160a01b03909116908201526060810187905260800160405160208183030381529060405280519060200120611768565b846117b6565b6011549091506001600160a01b0380831691161480610eaf5750806001600160a01b0316610ea46000546001600160a01b031690565b6001600160a01b0316145b949350505050565b323314610efb5760405162461bcd60e51b815260206004820152601260248201527110d05313115497d254d7d0d3d395149050d560721b60448201526064016108fe565b600f5460ff610100909104161515600114610f4a5760405162461bcd60e51b815260206004820152600f60248201526e53414c455f4e4f545f41435449564560881b60448201526064016108fe565b600e54421015610f8f5760405162461bcd60e51b815260206004820152601060248201526f4e4f545f494e5f53414c455f54494d4560801b60448201526064016108fe565b600954600c541115610fd75760405162461bcd60e51b81526020600482015260116024820152701414d7d4d51051d157d4d3d31117d3d555607a1b60448201526064016108fe565b600854610fec82610fe6610751565b906115c7565b111561102c5760405162461bcd60e51b815260206004820152600f60248201526e115610d1515114d7d3505617d39195608a1b60448201526064016108fe565b6000811180156110575750600a543360009081526012602052604090205461105490836115c7565b11155b6110a35760405162461bcd60e51b815260206004820152601760248201527f455843454544535f4d41585f50535f5155414e5449545900000000000000000060448201526064016108fe565b336000908152601260205260409020546110bd90826115c7565b33600090815260126020526040812091909155600c80548392906110e2908490612ab4565b909155506110f2905033826115da565b7f9670c8b300c38cd3db8d3f9429dd902e67f418c4dd193e2497f06d20efc79560338261111d610751565b604080516001600160a01b03909416845260208401929092529082015260600160405180910390a150565b60606003805461067690612941565b600f5462010000900460ff1615156001146111a65760405162461bcd60e51b815260206004820152600f60248201526e4255524e5f4e4f545f41435449564560881b60448201526064016108fe565b6001600160a01b0382163214806111c257506111c28233610542565b61120e5760405162461bcd60e51b815260206004820152601d60248201527f43414c4c45525f4e4f545f4f574e45525f4e4f525f415050524f56454400000060448201526064016108fe565b816001600160a01b031661122182610b57565b6001600160a01b0316146112775760405162461bcd60e51b815260206004820152601960248201527f414444524553535f4e4f545f544f4b454e49445f4f574e45520000000000000060448201526064016108fe565b611280816117da565b5050565b8161128e81611460565b6106628383611977565b836001600160a01b03811633146112b2576112b233611460565b6112be85858585611a0c565b5050505050565b6112cd6113d0565b600892909255600955600a55565b60606112e68261142a565b6113255760405162461bcd60e51b815260206004820152601060248201526f544f4b454e5f4e4f545f45584953545360801b60448201526064016108fe565b601061133083611a40565b604051602001611341929190612ae0565b6040516020818303038152906040529050919050565b61135f6113d0565b6001600160a01b0381166113c45760405162461bcd60e51b815260206004820152602660248201527f4f776e61626c653a206e6577206f776e657220697320746865207a65726f206160448201526564647265737360d01b60648201526084016108fe565b6113cd81611718565b50565b6000546001600160a01b03163314610dfb5760405162461bcd60e51b815260206004820181905260248201527f4f776e61626c653a2063616c6c6572206973206e6f7420746865206f776e657260448201526064016108fe565b6001546000906001600160801b0316821080156105fc575050600090815260046020526040902054600160e01b900460ff161590565b6daaeb6d7670e522a718067333cd4e3b156113cd57604051633185c44d60e21b81523060048201526001600160a01b03821660248201526daaeb6d7670e522a718067333cd4e9063c617113490604401602060405180830381865afa1580156114cd573d6000803e3d6000fd5b505050506040513d601f19601f820116820180604052508101906114f19190612b67565b6113cd57604051633b79c77360e21b81526001600160a01b03821660048201526024016108fe565b600061152482610b57565b9050806001600160a01b0316836001600160a01b0316036115585760405163250fdee360e21b815260040160405180910390fd5b336001600160a01b0382161480159061157857506115768133610542565b155b15611596576040516367d9dca160e11b815260040160405180910390fd5b610662838383611ad2565b610662838383611b2e565b61066283838360405180602001604052806000815250611298565b60006115d38284612ab4565b9392505050565b611280828260405180602001604052806000815250611d48565b604080516060810182526000808252602082018190529181019190915260015482906001600160801b03168110156116ff57600081815260046020908152604091829020825160608101845290546001600160a01b0381168252600160a01b81046001600160401b031692820192909252600160e01b90910460ff161515918101829052906116fd5780516001600160a01b031615611694579392505050565b5060001901600081815260046020908152604091829020825160608101845290546001600160a01b038116808352600160a01b82046001600160401b031693830193909352600160e01b900460ff16151592810192909252156116f8579392505050565b611694565b505b604051636f96cda160e11b815260040160405180910390fd5b600080546001600160a01b038381166001600160a01b0319831681178455604051919092169283917f8be0079c531659141344cd1fd0a4f28419497f9722a3daafe3b4186f6b6457e09190a35050565b60006105fc611775611d55565b8360405161190160f01b6020820152602281018390526042810182905260009060620160405160208183030381529060405280519060200120905092915050565b60008060006117c58585611e7c565b915091506117d281611ec1565b509392505050565b60006117e5826115f4565b90506117f76000838360000151611ad2565b80516001600160a01b039081166000908152600560209081526040808320805467ffffffffffffffff1981166001600160401b0391821660001901821617909155855185168452818420805467ffffffffffffffff60801b198116600160801b9182900484166001908101851690920217909155865188865260049094528285208054600160e01b9588166001600160e01b031990911617600160a01b42909416939093029290921760ff60e01b1916939093179055908501808352912054909116611917576001546001600160801b031681101561191757815160008281526004602090815260409091208054918501516001600160401b0316600160a01b026001600160e01b03199092166001600160a01b03909316929092171790555b50805160405183916000916001600160a01b03909116907fddf252ad1be2c89b69c2b068fc378daa952ba7f163c4a11628f55a4df523b3ef908390a45050600180546001600160801b03600160801b808304821684018216029116179055565b336001600160a01b038316036119a05760405163b06307db60e01b815260040160405180910390fd5b3360008181526007602090815260408083206001600160a01b03871680855290835292819020805460ff191686151590811790915590519081529192917f17307eab39ab6107e8899845ad3d59bd9653f200f220920489ca2b5937696c31910160405180910390a35050565b611a17848484611b2e565b611a238484848461200b565b610795576040516368d2bf6b60e11b815260040160405180910390fd5b60606000611a4d8361210d565b60010190506000816001600160401b03811115611a6c57611a6c61265e565b6040519080825280601f01601f191660200182016040528015611a96576020820181803683370190505b5090508181016020015b600019016f181899199a1a9b1b9c1cb0b131b232b360811b600a86061a8153600a8504945084611aa057509392505050565b60008281526006602052604080822080546001600160a01b0319166001600160a01b0387811691821790925591518593918516917f8c5be1e5ebec7d5bd14f71427d1e84f3dd0314c0f7b2291e5b200ac8c7c3b92591a4505050565b6000611b39826115f4565b80519091506000906001600160a01b0316336001600160a01b03161480611b6757508151611b679033610542565b80611b82575033611b77846106f9565b6001600160a01b0316145b905080611ba257604051632ce44b5f60e11b815260040160405180910390fd5b846001600160a01b031682600001516001600160a01b031614611bd75760405162a1148160e81b815260040160405180910390fd5b6001600160a01b038416611bfe57604051633a954ecd60e21b815260040160405180910390fd5b611c0e6000848460000151611ad2565b6001600160a01b038581166000908152600560209081526040808320805467ffffffffffffffff198082166001600160401b0392831660001901831617909255898616808652838620805493841693831660019081018416949094179055898652600490945282852080546001600160e01b031916909417600160a01b429092169190910217909255908601808352912054909116611d01576001546001600160801b0316811015611d0157825160008281526004602090815260409091208054918601516001600160401b0316600160a01b026001600160e01b03199092166001600160a01b03909316929092171790555b5082846001600160a01b0316866001600160a01b03167fddf252ad1be2c89b69c2b068fc378daa952ba7f163c4a11628f55a4df523b3ef60405160405180910390a46112be565b61066283838360016121e5565b6000306001600160a01b037f000000000000000000000000000000000000000000000000000000000000000016148015611dae57507f000000000000000000000000000000000000000000000000000000000000000046145b15611dd857507f000000000000000000000000000000000000000000000000000000000000000090565b50604080517f00000000000000000000000000000000000000000000000000000000000000006020808301919091527f0000000000000000000000000000000000000000000000000000000000000000828401527f000000000000000000000000000000000000000000000000000000000000000060608301524660808301523060a0808401919091528351808403909101815260c0909201909252805191012090565b6000808251604103611eb25760208301516040840151606085015160001a611ea687828585612370565b94509450505050611eba565b506000905060025b9250929050565b6000816004811115611ed557611ed5612b84565b03611edd5750565b6001816004811115611ef157611ef1612b84565b03611f3e5760405162461bcd60e51b815260206004820152601860248201527f45434453413a20696e76616c6964207369676e6174757265000000000000000060448201526064016108fe565b6002816004811115611f5257611f52612b84565b03611f9f5760405162461bcd60e51b815260206004820152601f60248201527f45434453413a20696e76616c6964207369676e6174757265206c656e6774680060448201526064016108fe565b6003816004811115611fb357611fb3612b84565b036113cd5760405162461bcd60e51b815260206004820152602260248201527f45434453413a20696e76616c6964207369676e6174757265202773272076616c604482015261756560f01b60648201526084016108fe565b60006001600160a01b0384163b1561210257604051630a85bd0160e11b81526001600160a01b0385169063150b7a029061204f903390899088908890600401612b9a565b6020604051808303816000875af192505050801561208a575060408051601f3d908101601f1916820190925261208791810190612bd7565b60015b6120e8573d8080156120b8576040519150601f19603f3d011682016040523d82523d6000602084013e6120bd565b606091505b5080516000036120e0576040516368d2bf6b60e11b815260040160405180910390fd5b805181602001fd5b6001600160e01b031916630a85bd0160e11b149050610eaf565b506001949350505050565b60008072184f03e93ff9f4daa797ed6e38ed64bf6a1f0160401b831061214c5772184f03e93ff9f4daa797ed6e38ed64bf6a1f0160401b830492506040015b6d04ee2d6d415b85acef81000000008310612178576d04ee2d6d415b85acef8100000000830492506020015b662386f26fc10000831061219657662386f26fc10000830492506010015b6305f5e10083106121ae576305f5e100830492506008015b61271083106121c257612710830492506004015b606483106121d4576064830492506002015b600a83106105fc5760010192915050565b6001546001600160801b03166001600160a01b03851661221757604051622e076360e81b815260040160405180910390fd5b836000036122385760405163b562e8dd60e01b815260040160405180910390fd5b6001600160a01b038516600081815260056020908152604080832080546001600160801b031981166001600160401b038083168c0181169182176801000000000000000067ffffffffffffffff1990941690921783900481168c018116909202179091558584526004909252822080546001600160e01b031916909317600160a01b42909216919091021790915581905b8581101561234a5760405182906001600160a01b038916906000907fddf252ad1be2c89b69c2b068fc378daa952ba7f163c4a11628f55a4df523b3ef908290a4838015612320575061231e600088848861200b565b155b1561233e576040516368d2bf6b60e11b815260040160405180910390fd5b600191820191016122c9565b50600180546001600160801b0319166001600160801b03929092169190911790556112be565b6000807f7fffffffffffffffffffffffffffffff5d576e7357a4501ddfe92f46681b20a08311156123a7575060009050600361242b565b6040805160008082526020820180845289905260ff881692820192909252606081018690526080810185905260019060a0016020604051602081039080840390855afa1580156123fb573d6000803e3d6000fd5b5050604051601f1901519150506001600160a01b0381166124245760006001925092505061242b565b9150600090505b94509492505050565b6001600160e01b0319811681146113cd57600080fd5b60006020828403121561245c57600080fd5b81356115d381612434565b80151581146113cd57600080fd5b600080600080600060a0868803121561248d57600080fd5b853561249881612467565b94506020860135935060408601356124af81612467565b92506060860135915060808601356124c681612467565b809150509295509295909350565b600080602083850312156124e757600080fd5b82356001600160401b03808211156124fe57600080fd5b818501915085601f83011261251257600080fd5b81358181111561252157600080fd5b86602082850101111561253357600080fd5b60209290920196919550909350505050565b60005b83811015612560578181015183820152602001612548565b50506000910152565b60008151808452612581816020860160208601612545565b601f01601f19169290920160200192915050565b6020815260006115d36020830184612569565b6000602082840312156125ba57600080fd5b5035919050565b80356001600160a01b03811681146125d857600080fd5b919050565b600080604083850312156125f057600080fd5b6125f9836125c1565b946020939093013593505050565b60006020828403121561261957600080fd5b6115d3826125c1565b60008060006060848603121561263757600080fd5b612640846125c1565b925061264e602085016125c1565b9150604084013590509250925092565b634e487b7160e01b600052604160045260246000fd5b600082601f83011261268557600080fd5b81356001600160401b038082111561269f5761269f61265e565b604051601f8301601f19908116603f011681019082821181831017156126c7576126c761265e565b816040528381528660208588010111156126e057600080fd5b836020870160208301376000602085830101528094505050505092915050565b60008060006060848603121561271557600080fd5b833592506020840135915060408401356001600160401b0381111561273957600080fd5b61274586828701612674565b9150509250925092565b60008083601f84011261276157600080fd5b5081356001600160401b0381111561277857600080fd5b6020830191508360208260051b8501011115611eba57600080fd5b600080600080604085870312156127a957600080fd5b84356001600160401b03808211156127c057600080fd5b6127cc8883890161274f565b909650945060208701359150808211156127e557600080fd5b506127f28782880161274f565b95989497509550505050565b6000806040838503121561281157600080fd5b8235915060208301356001600160401b0381111561282e57600080fd5b61283a85828601612674565b9150509250929050565b6000806040838503121561285757600080fd5b612860836125c1565b9150602083013561287081612467565b809150509250929050565b6000806000806080858703121561289157600080fd5b61289a856125c1565b93506128a8602086016125c1565b92506040850135915060608501356001600160401b038111156128ca57600080fd5b6128d687828801612674565b91505092959194509250565b6000806000606084860312156128f757600080fd5b505081359360208301359350604090920135919050565b6000806040838503121561292157600080fd5b61292a836125c1565b9150612938602084016125c1565b90509250929050565b600181811c9082168061295557607f821691505b60208210810361297557634e487b7160e01b600052602260045260246000fd5b50919050565b601f82111561066257600081815260208120601f850160051c810160208610156129a25750805b601f850160051c820191505b818110156129c1578281556001016129ae565b505050505050565b6001600160401b038311156129e0576129e061265e565b6129f4836129ee8354612941565b8361297b565b6000601f841160018114612a285760008515612a105750838201355b600019600387901b1c1916600186901b1783556112be565b600083815260209020601f19861690835b82811015612a595786850135825560209485019460019092019101612a39565b5086821015612a765760001960f88860031b161c19848701351681555b505060018560011b0183555050505050565b634e487b7160e01b600052603260045260246000fd5b634e487b7160e01b600052601160045260246000fd5b808201808211156105fc576105fc612a9e565b600060018201612ad957612ad9612a9e565b5060010190565b6000808454612aee81612941565b60018281168015612b065760018114612b1b57612b4a565b60ff1984168752821515830287019450612b4a565b8860005260208060002060005b85811015612b415781548a820152908401908201612b28565b50505082870194505b505050508351612b5e818360208801612545565b01949350505050565b600060208284031215612b7957600080fd5b81516115d381612467565b634e487b7160e01b600052602160045260246000fd5b6001600160a01b0385811682528416602082015260408101839052608060608201819052600090612bcd90830184612569565b9695505050505050565b600060208284031215612be957600080fd5b81516115d38161243456fea26469706673582212206b64a58bfe9efd6789c6ca8038137c17d4552723cfc7af9966810932e8bcbe2764736f6c6343000811003368747470733a2f2f73746f726167652e676f6f676c65617069732e636f6d2f776f6e6465726c616e642f6d657461646174612f",
  "devdoc": {
    "errors": {
      "OperatorNotAllowed(address)": [
        {
          "details": "Emitted when an operator is not allowed."
        }
      ]
    },
    "kind": "dev",
    "methods": {
      "balanceOf(address)": {
        "details": "See {IERC721-balanceOf}."
      },
      "getApproved(uint256)": {
        "details": "See {IERC721-getApproved}."
      },
      "isApprovedForAll(address,address)": {
        "details": "See {IERC721-isApprovedForAll}."
      },
      "name()": {
        "details": "See {IERC721Metadata-name}."
      },
      "owner()": {
        "details": "Returns the address of the current owner."
      },
      "ownerOf(uint256)": {
        "details": "See {IERC721-ownerOf}."
      },
      "renounceOwnership()": {
        "details": "Leaves the contract without owner. It will not be possible to call `onlyOwner` functions anymore. Can only be called by the current owner. NOTE: Renouncing ownership will leave the contract without an owner, thereby removing any functionality that is only available to the owner."
      },
      "safeTransferFrom(address,address,uint256)": {
        "details": "See {IERC721-safeTransferFrom}."
      },
      "setApprovalForAll(address,bool)": {
        "details": "See {IERC721-setApprovalForAll}."
      },
      "supportsInterface(bytes4)": {
        "details": "See {IERC165-supportsInterface}."
      },
      "symbol()": {
        "details": "See {IERC721Metadata-symbol}."
      },
      "tokenByIndex(uint256)": {
        "details": "See {IERC721Enumerable-tokenByIndex}. This read function is O(totalSupply). If calling from a separate contract, be sure to test gas first. It may also degrade with extremely large collection sizes (e.g >> 10000), test for your use case."
      },
      "tokenOfOwnerByIndex(address,uint256)": {
        "details": "See {IERC721Enumerable-tokenOfOwnerByIndex}. This read function is O(totalSupply). If calling from a separate contract, be sure to test gas first. It may also degrade with extremely large collection sizes (e.g >> 10000), test for your use case."
      },
      "tokenURI(uint256)": {
        "details": "See {IERC721Metadata-tokenURI}."
      },
      "totalSupply()": {
        "details": "See {IERC721Enumerable-totalSupply}."
      },
      "transferFrom(address,address,uint256)": {
        "details": "See {IERC721-transferFrom}."
      },
      "transferOwnership(address)": {
        "details": "Transfers ownership of the contract to a new account (`newOwner`). Can only be called by the current owner."
      }
    },
    "version": 1
  },
  "userdoc": {
    "kind": "user",
    "methods": {},
    "version": 1
  },
  "storageLayout": {
    "storage": [
      {
        "astId": 7,
        "contract": "contracts/wonderland_aicreate360.sol:wonderland_aicreate360",
        "label": "_owner",
        "offset": 0,
        "slot": "0",
        "type": "t_address"
      },
      {
        "astId": 3938,
        "contract": "contracts/wonderland_aicreate360.sol:wonderland_aicreate360",
        "label": "_currentIndex",
        "offset": 0,
        "slot": "1",
        "type": "t_uint128"
      },
      {
        "astId": 3940,
        "contract": "contracts/wonderland_aicreate360.sol:wonderland_aicreate360",
        "label": "_burnCounter",
        "offset": 16,
        "slot": "1",
        "type": "t_uint128"
      },
      {
        "astId": 3942,
        "contract": "contracts/wonderland_aicreate360.sol:wonderland_aicreate360",
        "label": "_name",
        "offset": 0,
        "slot": "2",
        "type": "t_string_storage"
      },
      {
        "astId": 3944,
        "contract": "contracts/wonderland_aicreate360.sol:wonderland_aicreate360",
        "label": "_symbol",
        "offset": 0,
        "slot": "3",
        "type": "t_string_storage"
      },
      {
        "astId": 3949,
        "contract": "contracts/wonderland_aicreate360.sol:wonderland_aicreate360",
        "label": "_ownerships",
        "offset": 0,
        "slot": "4",
        "type": "t_mapping(t_uint256,t_struct(TokenOwnership)3929_storage)"
      },
      {
        "astId": 3954,
        "contract": "contracts/wonderland_aicreate360.sol:wonderland_aicreate360",
        "label": "_addressData",
        "offset": 0,
        "slot": "5",
        "type": "t_mapping(t_address,t_struct(AddressData)3936_storage)"
      },
      {
        "astId": 3958,
        "contract": "contracts/wonderland_aicreate360.sol:wonderland_aicreate360",
        "label": "_tokenApprovals",
        "offset": 0,
        "slot": "6",
        "type": "t_mapping(t_uint256,t_address)"
      },
      {
        "astId": 3964,
        "contract": "contracts/wonderland_aicreate360.sol:wonderland_aicreate360",
        "label": "_operatorApprovals",
        "offset": 0,
        "slot": "7",
        "type": "t_mapping(t_address,t_mapping(t_address,t_bool))"
      },
      {
        "astId": 5238,
        "contract": "contracts/wonderland_aicreate360.sol:wonderland_aicreate360",
        "label": "MAX_NFT",
        "offset": 0,
        "slot": "8",
        "type": "t_uint256"
      },
      {
        "astId": 5241,
        "contract": "contracts/wonderland_aicreate360.sol:wonderland_aicreate360",
        "label": "PS_STAGE_LIMIT",
        "offset": 0,
        "slot": "9",
        "type": "t_uint256"
      },
      {
        "astId": 5244,
        "contract": "contracts/wonderland_aicreate360.sol:wonderland_aicreate360",
        "label": "MAX_PS_ADDRESS_TOKEN",
        "offset": 0,
        "slot": "10",
        "type": "t_uint256"
      },
      {
        "astId": 5247,
        "contract": "contracts/wonderland_aicreate360.sol:wonderland_aicreate360",
        "label": "airdropQuantity",
        "offset": 0,
        "slot": "11",
        "type": "t_uint256"
      },
      {
        "astId": 5250,
        "contract": "contracts/wonderland_aicreate360.sol:wonderland_aicreate360",
        "label": "soldQuantity",
        "offset": 0,
        "slot": "12",
        "type": "t_uint256"
      },
      {
        "astId": 5253,
        "contract": "contracts/wonderland_aicreate360.sol:wonderland_aicreate360",
        "label": "whitelistSaleTimestamp",
        "offset": 0,
        "slot": "13",
        "type": "t_uint256"
      },
      {
        "astId": 5256,
        "contract": "contracts/wonderland_aicreate360.sol:wonderland_aicreate360",
        "label": "publicSaleTimestamp",
        "offset": 0,
        "slot": "14",
        "type": "t_uint256"
      },
      {
        "astId": 5259,
        "contract": "contracts/wonderland_aicreate360.sol:wonderland_aicreate360",
        "label": "hasWhitelistSaleStarted",
        "offset": 0,
        "slot": "15",
        "type": "t_bool"
      },
      {
        "astId": 5262,
        "contract": "contracts/wonderland_aicreate360.sol:wonderland_aicreate360",
        "label": "hasPublicSaleStarted",
        "offset": 1,
        "slot": "15",
        "type": "t_bool"
      },
      {
        "astId": 5265,
        "contract": "contracts/wonderland_aicreate360.sol:wonderland_aicreate360",
        "label": "hasBurnStarted",
        "offset": 2,
        "slot": "15",
        "type": "t_bool"
      },
      {
        "astId": 5268,
        "contract": "contracts/wonderland_aicreate360.sol:wonderland_aicreate360",
        "label": "_baseTokenURI",
        "offset": 0,
        "slot": "16",
        "type": "t_string_storage"
      },
      {
        "astId": 5271,
        "contract": "contracts/wonderland_aicreate360.sol:wonderland_aicreate360",
        "label": "signer",
        "offset": 0,
        "slot": "17",
        "type": "t_address"
      },
      {
        "astId": 5275,
        "contract": "contracts/wonderland_aicreate360.sol:wonderland_aicreate360",
        "label": "hasPSMinted",
        "offset": 0,
        "slot": "18",
        "type": "t_mapping(t_address,t_uint256)"
      },
      {
        "astId": 5279,
        "contract": "contracts/wonderland_aicreate360.sol:wonderland_aicreate360",
        "label": "hasWLMinted",
        "offset": 0,
        "slot": "19",
        "type": "t_mapping(t_address,t_uint256)"
      }
    ],
    "types": {
      "t_address": {
        "encoding": "inplace",
        "label": "address",
        "numberOfBytes": "20"
      },
      "t_bool": {
        "encoding": "inplace",
        "label": "bool",
        "numberOfBytes": "1"
      },
      "t_mapping(t_address,t_bool)": {
        "encoding": "mapping",
        "key": "t_address",
        "label": "mapping(address => bool)",
        "numberOfBytes": "32",
        "value": "t_bool"
      },
      "t_mapping(t_address,t_mapping(t_address,t_bool))": {
        "encoding": "mapping",
        "key": "t_address",
        "label": "mapping(address => mapping(address => bool))",
        "numberOfBytes": "32",
        "value": "t_mapping(t_address,t_bool)"
      },
      "t_mapping(t_address,t_struct(AddressData)3936_storage)": {
        "encoding": "mapping",
        "key": "t_address",
        "label": "mapping(address => struct ERC721A.AddressData)",
        "numberOfBytes": "32",
        "value": "t_struct(AddressData)3936_storage"
      },
      "t_mapping(t_address,t_uint256)": {
        "encoding": "mapping",
        "key": "t_address",
        "label": "mapping(address => uint256)",
        "numberOfBytes": "32",
        "value": "t_uint256"
      },
      "t_mapping(t_uint256,t_address)": {
        "encoding": "mapping",
        "key": "t_uint256",
        "label": "mapping(uint256 => address)",
        "numberOfBytes": "32",
        "value": "t_address"
      },
      "t_mapping(t_uint256,t_struct(TokenOwnership)3929_storage)": {
        "encoding": "mapping",
        "key": "t_uint256",
        "label": "mapping(uint256 => struct ERC721A.TokenOwnership)",
        "numberOfBytes": "32",
        "value": "t_struct(TokenOwnership)3929_storage"
      },
      "t_string_storage": {
        "encoding": "bytes",
        "label": "string",
        "numberOfBytes": "32"
      },
      "t_struct(AddressData)3936_storage": {
        "encoding": "inplace",
        "label": "struct ERC721A.AddressData",
        "members": [
          {
            "astId": 3931,
            "contract": "contracts/wonderland_aicreate360.sol:wonderland_aicreate360",
            "label": "balance",
            "offset": 0,
            "slot": "0",
            "type": "t_uint64"
          },
          {
            "astId": 3933,
            "contract": "contracts/wonderland_aicreate360.sol:wonderland_aicreate360",
            "label": "numberMinted",
            "offset": 8,
            "slot": "0",
            "type": "t_uint64"
          },
          {
            "astId": 3935,
            "contract": "contracts/wonderland_aicreate360.sol:wonderland_aicreate360",
            "label": "numberBurned",
            "offset": 16,
            "slot": "0",
            "type": "t_uint64"
          }
        ],
        "numberOfBytes": "32"
      },
      "t_struct(TokenOwnership)3929_storage": {
        "encoding": "inplace",
        "label": "struct ERC721A.TokenOwnership",
        "members": [
          {
            "astId": 3924,
            "contract": "contracts/wonderland_aicreate360.sol:wonderland_aicreate360",
            "label": "addr",
            "offset": 0,
            "slot": "0",
            "type": "t_address"
          },
          {
            "astId": 3926,
            "contract": "contracts/wonderland_aicreate360.sol:wonderland_aicreate360",
            "label": "startTimestamp",
            "offset": 20,
            "slot": "0",
            "type": "t_uint64"
          },
          {
            "astId": 3928,
            "contract": "contracts/wonderland_aicreate360.sol:wonderland_aicreate360",
            "label": "burned",
            "offset": 28,
            "slot": "0",
            "type": "t_bool"
          }
        ],
        "numberOfBytes": "32"
      },
      "t_uint128": {
        "encoding": "inplace",
        "label": "uint128",
        "numberOfBytes": "16"
      },
      "t_uint256": {
        "encoding": "inplace",
        "label": "uint256",
        "numberOfBytes": "32"
      },
      "t_uint64": {
        "encoding": "inplace",
        "label": "uint64",
        "numberOfBytes": "8"
      }
    }
  }
}