{
  "address": "0x03BDD595639Fb287622Fc1A0baced3f3E1186ACE",
  "abi": [
    {
      "inputs": [],
      "stateMutability": "nonpayable",
      "type": "constructor"
    },
    {
      "inputs": [],
      "name": "ApprovalCallerNotOwnerNorApproved",
      "type": "error"
    },
    {
      "inputs": [],
      "name": "ApprovalQueryForNonexistentToken",
      "type": "error"
    },
    {
      "inputs": [],
      "name": "ApprovalToCurrentOwner",
      "type": "error"
    },
    {
      "inputs": [],
      "name": "ApproveToCaller",
      "type": "error"
    },
    {
      "inputs": [],
      "name": "BalanceQueryForZeroAddress",
      "type": "error"
    },
    {
      "inputs": [],
      "name": "MintToZeroAddress",
      "type": "error"
    },
    {
      "inputs": [],
      "name": "MintZeroQuantity",
      "type": "error"
    },
    {
      "inputs": [],
      "name": "OwnerIndexOutOfBounds",
      "type": "error"
    },
    {
      "inputs": [],
      "name": "OwnerQueryForNonexistentToken",
      "type": "error"
    },
    {
      "inputs": [],
      "name": "TokenIndexOutOfBounds",
      "type": "error"
    },
    {
      "inputs": [],
      "name": "TransferCallerNotOwnerNorApproved",
      "type": "error"
    },
    {
      "inputs": [],
      "name": "TransferFromIncorrectOwner",
      "type": "error"
    },
    {
      "inputs": [],
      "name": "TransferToNonERC721ReceiverImplementer",
      "type": "error"
    },
    {
      "inputs": [],
      "name": "TransferToZeroAddress",
      "type": "error"
    },
    {
      "anonymous": false,
      "inputs": [
        {
          "indexed": true,
          "internalType": "address",
          "name": "owner",
          "type": "address"
        },
        {
          "indexed": true,
          "internalType": "address",
          "name": "approved",
          "type": "address"
        },
        {
          "indexed": true,
          "internalType": "uint256",
          "name": "tokenId",
          "type": "uint256"
        }
      ],
      "name": "Approval",
      "type": "event"
    },
    {
      "anonymous": false,
      "inputs": [
        {
          "indexed": true,
          "internalType": "address",
          "name": "owner",
          "type": "address"
        },
        {
          "indexed": true,
          "internalType": "address",
          "name": "operator",
          "type": "address"
        },
        {
          "indexed": false,
          "internalType": "bool",
          "name": "approved",
          "type": "bool"
        }
      ],
      "name": "ApprovalForAll",
      "type": "event"
    },
    {
      "anonymous": false,
      "inputs": [
        {
          "indexed": true,
          "internalType": "address",
          "name": "previousOwner",
          "type": "address"
        },
        {
          "indexed": true,
          "internalType": "address",
          "name": "newOwner",
          "type": "address"
        }
      ],
      "name": "OwnershipTransferred",
      "type": "event"
    },
    {
      "anonymous": false,
      "inputs": [
        {
          "indexed": true,
          "internalType": "address",
          "name": "from",
          "type": "address"
        },
        {
          "indexed": true,
          "internalType": "address",
          "name": "to",
          "type": "address"
        },
        {
          "indexed": true,
          "internalType": "uint256",
          "name": "tokenId",
          "type": "uint256"
        }
      ],
      "name": "Transfer",
      "type": "event"
    },
    {
      "anonymous": false,
      "inputs": [
        {
          "indexed": false,
          "internalType": "address",
          "name": "owner",
          "type": "address"
        },
        {
          "indexed": false,
          "internalType": "uint256",
          "name": "quantity",
          "type": "uint256"
        },
        {
          "indexed": false,
          "internalType": "uint256",
          "name": "totalSupply",
          "type": "uint256"
        }
      ],
      "name": "mintEvent",
      "type": "event"
    },
    {
      "inputs": [],
      "name": "MAX_NFT",
      "outputs": [
        {
          "internalType": "uint256",
          "name": "",
          "type": "uint256"
        }
      ],
      "stateMutability": "view",
      "type": "function"
    },
    {
      "inputs": [],
      "name": "MAX_PS_ADDRESS_TOKEN",
      "outputs": [
        {
          "internalType": "uint256",
          "name": "",
          "type": "uint256"
        }
      ],
      "stateMutability": "view",
      "type": "function"
    },
    {
      "inputs": [],
      "name": "PS_STAGE_LIMIT",
      "outputs": [
        {
          "internalType": "uint256",
          "name": "",
          "type": "uint256"
        }
      ],
      "stateMutability": "view",
      "type": "function"
    },
    {
      "inputs": [],
      "name": "WL_STAGE_LIMIT",
      "outputs": [
        {
          "internalType": "uint256",
          "name": "",
          "type": "uint256"
        }
      ],
      "stateMutability": "view",
      "type": "function"
    },
    {
      "inputs": [
        {
          "internalType": "address[]",
          "name": "_to",
          "type": "address[]"
        },
        {
          "internalType": "uint256[]",
          "name": "quantity",
          "type": "uint256[]"
        }
      ],
      "name": "airdrop",
      "outputs": [],
      "stateMutability": "nonpayable",
      "type": "function"
    },
    {
      "inputs": [
        {
          "internalType": "address",
          "name": "to",
          "type": "address"
        },
        {
          "internalType": "uint256",
          "name": "tokenId",
          "type": "uint256"
        }
      ],
      "name": "approve",
      "outputs": [],
      "stateMutability": "nonpayable",
      "type": "function"
    },
    {
      "inputs": [
        {
          "internalType": "address",
          "name": "owner",
          "type": "address"
        }
      ],
      "name": "balanceOf",
      "outputs": [
        {
          "internalType": "uint256",
          "name": "",
          "type": "uint256"
        }
      ],
      "stateMutability": "view",
      "type": "function"
    },
    {
      "inputs": [
        {
          "internalType": "address",
          "name": "account",
          "type": "address"
        },
        {
          "internalType": "uint256",
          "name": "id",
          "type": "uint256"
        }
      ],
      "name": "burn",
      "outputs": [],
      "stateMutability": "nonpayable",
      "type": "function"
    },
    {
      "inputs": [
        {
          "internalType": "uint256",
          "name": "tokenId",
          "type": "uint256"
        }
      ],
      "name": "getApproved",
      "outputs": [
        {
          "internalType": "address",
          "name": "",
          "type": "address"
        }
      ],
      "stateMutability": "view",
      "type": "function"
    },
    {
      "inputs": [],
      "name": "hasBurnStarted",
      "outputs": [
        {
          "internalType": "bool",
          "name": "",
          "type": "bool"
        }
      ],
      "stateMutability": "view",
      "type": "function"
    },
    {
      "inputs": [
        {
          "internalType": "address",
          "name": "",
          "type": "address"
        }
      ],
      "name": "hasPSMinted",
      "outputs": [
        {
          "internalType": "uint256",
          "name": "",
          "type": "uint256"
        }
      ],
      "stateMutability": "view",
      "type": "function"
    },
    {
      "inputs": [],
      "name": "hasPublicSaleStarted",
      "outputs": [
        {
          "internalType": "bool",
          "name": "",
          "type": "bool"
        }
      ],
      "stateMutability": "view",
      "type": "function"
    },
    {
      "inputs": [
        {
          "internalType": "address",
          "name": "",
          "type": "address"
        }
      ],
      "name": "hasWLMinted",
      "outputs": [
        {
          "internalType": "uint256",
          "name": "",
          "type": "uint256"
        }
      ],
      "stateMutability": "view",
      "type": "function"
    },
    {
      "inputs": [],
      "name": "hasWhitelistSaleStarted",
      "outputs": [
        {
          "internalType": "bool",
          "name": "",
          "type": "bool"
        }
      ],
      "stateMutability": "view",
      "type": "function"
    },
    {
      "inputs": [
        {
          "internalType": "address",
          "name": "owner",
          "type": "address"
        },
        {
          "internalType": "address",
          "name": "operator",
          "type": "address"
        }
      ],
      "name": "isApprovedForAll",
      "outputs": [
        {
          "internalType": "bool",
          "name": "",
          "type": "bool"
        }
      ],
      "stateMutability": "view",
      "type": "function"
    },
    {
      "inputs": [
        {
          "internalType": "uint256",
          "name": "quantity",
          "type": "uint256"
        }
      ],
      "name": "mintNFT",
      "outputs": [],
      "stateMutability": "nonpayable",
      "type": "function"
    },
    {
      "inputs": [
        {
          "internalType": "uint256",
          "name": "quantity",
          "type": "uint256"
        },
        {
          "internalType": "uint256",
          "name": "maxQuantity",
          "type": "uint256"
        },
        {
          "internalType": "bytes",
          "name": "SIGNATURE",
          "type": "bytes"
        }
      ],
      "name": "mintWhitelist",
      "outputs": [],
      "stateMutability": "nonpayable",
      "type": "function"
    },
    {
      "inputs": [],
      "name": "name",
      "outputs": [
        {
          "internalType": "string",
          "name": "",
          "type": "string"
        }
      ],
      "stateMutability": "view",
      "type": "function"
    },
    {
      "inputs": [],
      "name": "owner",
      "outputs": [
        {
          "internalType": "address",
          "name": "",
          "type": "address"
        }
      ],
      "stateMutability": "view",
      "type": "function"
    },
    {
      "inputs": [
        {
          "internalType": "uint256",
          "name": "tokenId",
          "type": "uint256"
        }
      ],
      "name": "ownerOf",
      "outputs": [
        {
          "internalType": "address",
          "name": "",
          "type": "address"
        }
      ],
      "stateMutability": "view",
      "type": "function"
    },
    {
      "inputs": [],
      "name": "publicSaleTimestamp",
      "outputs": [
        {
          "internalType": "uint256",
          "name": "",
          "type": "uint256"
        }
      ],
      "stateMutability": "view",
      "type": "function"
    },
    {
      "inputs": [],
      "name": "renounceOwnership",
      "outputs": [],
      "stateMutability": "nonpayable",
      "type": "function"
    },
    {
      "inputs": [
        {
          "internalType": "address",
          "name": "from",
          "type": "address"
        },
        {
          "internalType": "address",
          "name": "to",
          "type": "address"
        },
        {
          "internalType": "uint256",
          "name": "tokenId",
          "type": "uint256"
        }
      ],
      "name": "safeTransferFrom",
      "outputs": [],
      "stateMutability": "nonpayable",
      "type": "function"
    },
    {
      "inputs": [
        {
          "internalType": "address",
          "name": "from",
          "type": "address"
        },
        {
          "internalType": "address",
          "name": "to",
          "type": "address"
        },
        {
          "internalType": "uint256",
          "name": "tokenId",
          "type": "uint256"
        },
        {
          "internalType": "bytes",
          "name": "_data",
          "type": "bytes"
        }
      ],
      "name": "safeTransferFrom",
      "outputs": [],
      "stateMutability": "nonpayable",
      "type": "function"
    },
    {
      "inputs": [
        {
          "internalType": "address",
          "name": "operator",
          "type": "address"
        },
        {
          "internalType": "bool",
          "name": "approved",
          "type": "bool"
        }
      ],
      "name": "setApprovalForAll",
      "outputs": [],
      "stateMutability": "nonpayable",
      "type": "function"
    },
    {
      "inputs": [
        {
          "internalType": "uint256",
          "name": "_MAX_num",
          "type": "uint256"
        },
        {
          "internalType": "uint256",
          "name": "_WL_STAGE_LIMIT",
          "type": "uint256"
        },
        {
          "internalType": "uint256",
          "name": "_PS_STAGE_LIMIT",
          "type": "uint256"
        },
        {
          "internalType": "uint256",
          "name": "_MAX_PS_ADDRESS_TOKEN",
          "type": "uint256"
        }
      ],
      "name": "setMAX_NFT",
      "outputs": [],
      "stateMutability": "nonpayable",
      "type": "function"
    },
    {
      "inputs": [
        {
          "internalType": "address",
          "name": "_signer",
          "type": "address"
        }
      ],
      "name": "setSigner",
      "outputs": [],
      "stateMutability": "nonpayable",
      "type": "function"
    },
    {
      "inputs": [
        {
          "internalType": "bool",
          "name": "_hasWhitelistSaleStarted",
          "type": "bool"
        },
        {
          "internalType": "uint256",
          "name": "_whitelistSaleTimestamp",
          "type": "uint256"
        },
        {
          "internalType": "bool",
          "name": "_hasPublicSaleStarted",
          "type": "bool"
        },
        {
          "internalType": "uint256",
          "name": "_publicSaleTimestamp",
          "type": "uint256"
        },
        {
          "internalType": "bool",
          "name": "_hasBurnStarted",
          "type": "bool"
        }
      ],
      "name": "setSwitch",
      "outputs": [],
      "stateMutability": "nonpayable",
      "type": "function"
    },
    {
      "inputs": [
        {
          "internalType": "string",
          "name": "_tokenURI",
          "type": "string"
        }
      ],
      "name": "setURI",
      "outputs": [],
      "stateMutability": "nonpayable",
      "type": "function"
    },
    {
      "inputs": [],
      "name": "signer",
      "outputs": [
        {
          "internalType": "address",
          "name": "",
          "type": "address"
        }
      ],
      "stateMutability": "view",
      "type": "function"
    },
    {
      "inputs": [
        {
          "internalType": "bytes4",
          "name": "interfaceId",
          "type": "bytes4"
        }
      ],
      "name": "supportsInterface",
      "outputs": [
        {
          "internalType": "bool",
          "name": "",
          "type": "bool"
        }
      ],
      "stateMutability": "view",
      "type": "function"
    },
    {
      "inputs": [],
      "name": "symbol",
      "outputs": [
        {
          "internalType": "string",
          "name": "",
          "type": "string"
        }
      ],
      "stateMutability": "view",
      "type": "function"
    },
    {
      "inputs": [
        {
          "internalType": "uint256",
          "name": "index",
          "type": "uint256"
        }
      ],
      "name": "tokenByIndex",
      "outputs": [
        {
          "internalType": "uint256",
          "name": "",
          "type": "uint256"
        }
      ],
      "stateMutability": "view",
      "type": "function"
    },
    {
      "inputs": [
        {
          "internalType": "address",
          "name": "owner",
          "type": "address"
        },
        {
          "internalType": "uint256",
          "name": "index",
          "type": "uint256"
        }
      ],
      "name": "tokenOfOwnerByIndex",
      "outputs": [
        {
          "internalType": "uint256",
          "name": "",
          "type": "uint256"
        }
      ],
      "stateMutability": "view",
      "type": "function"
    },
    {
      "inputs": [
        {
          "internalType": "uint256",
          "name": "tokenId",
          "type": "uint256"
        }
      ],
      "name": "tokenURI",
      "outputs": [
        {
          "internalType": "string",
          "name": "",
          "type": "string"
        }
      ],
      "stateMutability": "view",
      "type": "function"
    },
    {
      "inputs": [],
      "name": "totalSupply",
      "outputs": [
        {
          "internalType": "uint256",
          "name": "",
          "type": "uint256"
        }
      ],
      "stateMutability": "view",
      "type": "function"
    },
    {
      "inputs": [
        {
          "internalType": "address",
          "name": "from",
          "type": "address"
        },
        {
          "internalType": "address",
          "name": "to",
          "type": "address"
        },
        {
          "internalType": "uint256",
          "name": "tokenId",
          "type": "uint256"
        }
      ],
      "name": "transferFrom",
      "outputs": [],
      "stateMutability": "nonpayable",
      "type": "function"
    },
    {
      "inputs": [
        {
          "internalType": "address",
          "name": "newOwner",
          "type": "address"
        }
      ],
      "name": "transferOwnership",
      "outputs": [],
      "stateMutability": "nonpayable",
      "type": "function"
    },
    {
      "inputs": [],
      "name": "treasury",
      "outputs": [
        {
          "internalType": "address",
          "name": "",
          "type": "address"
        }
      ],
      "stateMutability": "view",
      "type": "function"
    },
    {
      "inputs": [
        {
          "internalType": "uint256",
          "name": "maxQuantity",
          "type": "uint256"
        },
        {
          "internalType": "bytes",
          "name": "SIGNATURE",
          "type": "bytes"
        }
      ],
      "name": "verify",
      "outputs": [
        {
          "internalType": "bool",
          "name": "",
          "type": "bool"
        }
      ],
      "stateMutability": "view",
      "type": "function"
    },
    {
      "inputs": [],
      "name": "whitelistSaleTimestamp",
      "outputs": [
        {
          "internalType": "uint256",
          "name": "",
          "type": "uint256"
        }
      ],
      "stateMutability": "view",
      "type": "function"
    }
  ],
  "transactionHash": "0xf2353cfa94c4118b696a8db8aedf0ce07d093894bf6527cf68cac9f4d0f19112",
  "args": [],
  "numDeployments": 1,
  "solcInputHash": "9715397c2c7435e3ef4043118427a05f",
  "bytecode": "0x610bb76008819055610291600955600a556001600b5563622e4278600c819055600d55600e805462ffffff191690556101a0604052602b610140818152906200344c6101603980516200005b91600f916020909101906200066f565b506010805473711a9ba89a8da7c84f4805b989f67af038e023a66001600160a01b031991821681179092556011805490911690911790553480156200009f57600080fd5b506040518060400160405280601681526020017f776f6e6465726c616e645f6169637265617465333630000000000000000000008152506040518060400160405280600a81526020016915dbdb99195c9b185b9960b21b8152506040518060400160405280601681526020017f776f6e6465726c616e645f616963726561746533363000000000000000000000815250604051806040016040528060058152602001640312e302e360dc1b81525062000167620001616200024860201b60201c565b6200024c565b815160208084019190912082518383012060e08290526101008190524660a0818152604080517f8b73c3c69bb8fe3d512ecc4cf759cc79239f7b179b0ffacaa9a75d522b39400f81880181905281830187905260608201869052608082019490945230818401528151808203909301835260c00190528051940193909320919290916080523060601b60c05261012052505083516200021092506002915060208501906200066f565b508051620002269060039060208401906200066f565b50506010546200024291506001600160a01b031660326200029c565b6200084b565b3390565b600080546001600160a01b038381166001600160a01b0319831681178455604051919092169283917f8be0079c531659141344cd1fd0a4f28419497f9722a3daafe3b4186f6b6457e09190a35050565b620002be828260405180602001604052806000815250620002c260201b60201c565b5050565b620002d18383836001620002d6565b505050565b6001546001600160801b03166001600160a01b0385166200030957604051622e076360e81b815260040160405180910390fd5b83620003285760405163b562e8dd60e01b815260040160405180910390fd5b62000337600086838762000477565b6001600160a01b038516600081815260056020908152604080832080546001600160801b031981166001600160401b038083168c018116918217680100000000000000006001600160401b031990941690921783900481168c018116909202179091558584526004909252822080546001600160e01b031916909317600160a01b42909216919091021790915581905b858110156200044e5760405182906001600160a01b038916906000907fddf252ad1be2c89b69c2b068fc378daa952ba7f163c4a11628f55a4df523b3ef908290a483801562000422575062000420600088848862000531565b155b1562000441576040516368d2bf6b60e11b815260040160405180910390fd5b60019182019101620003c7565b50600180546001600160801b0319166001600160801b03929092169190911790555b5050505050565b60005b8181101562000470576000620004918285620007bf565b905060328110158015620004a6575060738111155b156200051b576001600160a01b0386161580620004ca57506001600160a01b038516155b6200051b5760405162461bcd60e51b815260206004820152601b60248201527f534f554c424f554e443a204e6f6e2d5472616e7366657261626c650000000000604482015260640160405180910390fd5b5080620005288162000817565b9150506200047a565b600062000552846001600160a01b03166200066060201b620014e21760201c565b156200065457604051630a85bd0160e11b81526001600160a01b0385169063150b7a02906200058c90339089908890889060040162000746565b602060405180830381600087803b158015620005a757600080fd5b505af1925050508015620005da575060408051601f3d908101601f19168201909252620005d79181019062000715565b60015b62000639573d8080156200060b576040519150601f19603f3d011682016040523d82523d6000602084013e62000610565b606091505b50805162000631576040516368d2bf6b60e11b815260040160405180910390fd5b805181602001fd5b6001600160e01b031916630a85bd0160e11b14905062000658565b5060015b949350505050565b6001600160a01b03163b151590565b8280546200067d90620007da565b90600052602060002090601f016020900481019282620006a15760008555620006ec565b82601f10620006bc57805160ff1916838001178555620006ec565b82800160010185558215620006ec579182015b82811115620006ec578251825591602001919060010190620006cf565b50620006fa929150620006fe565b5090565b5b80821115620006fa5760008155600101620006ff565b60006020828403121562000727578081fd5b81516001600160e01b0319811681146200073f578182fd5b9392505050565b600060018060a01b0380871683526020818716818501528560408501526080606085015284519150816080850152825b82811015620007945785810182015185820160a00152810162000776565b82811115620007a6578360a084870101525b5050601f01601f19169190910160a00195945050505050565b60008219821115620007d557620007d562000835565b500190565b600181811c90821680620007ef57607f821691505b602082108114156200081157634e487b7160e01b600052602260045260246000fd5b50919050565b60006000198214156200082e576200082e62000835565b5060010190565b634e487b7160e01b600052601160045260246000fd5b60805160a05160c05160601c60e0516101005161012051612bae6200089e6000396000611ebd01526000611f0c01526000611ee701526000611e4001526000611e6a01526000611e940152612bae6000f3fe608060405234801561001057600080fd5b50600436106102535760003560e01c80636352211e1161014657806392642744116100c3578063c87b56dd11610087578063c87b56dd146104ef578063e6d7e13414610502578063e6e4f2731461050b578063e985e9c51461051e578063f2fde38b1461055a578063fdd4b0f01461056d57600080fd5b8063926427441461049b57806395d89b41146104ae5780639dc29fac146104b6578063a22cb465146104c9578063b88d4fde146104dc57600080fd5b8063715018a61161010a578063715018a6146104535780637cdcc5121461045b57806385852ce4146104645780638da5cb5b1461047757806391e299801461048857600080fd5b80636352211e146103fe57806367243482146104115780636c19e783146104245780636fdaddf11461043757806370a082311461044057600080fd5b80632f745c59116101d457806343774ebd1161019857806343774ebd1461039c5780634f6ccce7146103af57806352e96828146103c257806353c27fd2146103cb57806361d027b3146103eb57600080fd5b80632f745c591461035757806332a61f5f1461036a5780633da30a3014610377578063401dd7161461038057806342842e0e1461038957600080fd5b8063095ea7b31161021b578063095ea7b3146102e8578063099c7071146102fb57806318160ddd14610329578063238ac9331461033157806323b872dd1461034457600080fd5b806301ffc9a71461025857806302a4e1871461028057806302fe53051461029557806306fdde03146102a8578063081812fc146102bd575b600080fd5b61026b6102663660046127e0565b61057f565b60405190151581526020015b60405180910390f35b61029361028e36600461278a565b6105ec565b005b6102936102a3366004612818565b610637565b6102b0610650565b6040516102779190612a89565b6102d06102cb366004612884565b6106e2565b6040516001600160a01b039091168152602001610277565b6102936102f63660046126f9565b610726565b61031b6103093660046125e4565b60126020526000908152604090205481565b604051908152602001610277565b61031b6107af565b6011546102d0906001600160a01b031681565b610293610352366004612630565b6107ce565b61031b6103653660046126f9565b6107d9565b600e5461026b9060ff1681565b61031b600a5481565b61031b60095481565b610293610397366004612630565b6108d5565b6102936103aa3660046128e0565b6108f0565b61031b6103bd366004612884565b610b3f565b61031b600c5481565b61031b6103d93660046125e4565b60136020526000908152604090205481565b6010546102d0906001600160a01b031681565b6102d061040c366004612884565b610beb565b61029361041f366004612722565b610bfd565b6102936104323660046125e4565b610de6565b61031b60085481565b61031b61044e3660046125e4565b610e5d565b610293610eab565b61031b600b5481565b61026b61047236600461289c565b610ebf565b6000546001600160a01b03166102d0565b600e5461026b9062010000900460ff1681565b6102936104a9366004612884565b610f49565b6102b06111c5565b6102936104c43660046126f9565b6111d4565b6102936104d73660046126d0565b611301565b6102936104ea36600461266b565b611397565b6102b06104fd366004612884565b6113d1565b61031b600d5481565b61029361051936600461292d565b61144d565b61026b61052c3660046125fe565b6001600160a01b03918216600090815260076020908152604080832093909416825291909152205460ff1690565b6102936105683660046125e4565b611469565b600e5461026b90610100900460ff1681565b60006001600160e01b031982166380ac58cd60e01b14806105b057506001600160e01b03198216635b5e139f60e01b145b806105cb57506001600160e01b0319821663780e9d6360e01b145b806105e657506301ffc9a760e01b6001600160e01b03198316145b92915050565b6105f46114f1565b600e8054600c95909555600d929092551515620100000262ff0000199215156101000261ff00199515159590951661ffff19909416939093179390931716179055565b61063f6114f1565b61064b600f8383612457565b505050565b60606002805461065f90612ae0565b80601f016020809104026020016040519081016040528092919081815260200182805461068b90612ae0565b80156106d85780601f106106ad576101008083540402835291602001916106d8565b820191906000526020600020905b8154815290600101906020018083116106bb57829003601f168201915b5050505050905090565b60006106ed8261154b565b61070a576040516333d1c03960e21b815260040160405180910390fd5b506000908152600660205260409020546001600160a01b031690565b600061073182610beb565b9050806001600160a01b0316836001600160a01b031614156107665760405163250fdee360e21b815260040160405180910390fd5b336001600160a01b038216148015906107865750610784813361052c565b155b156107a4576040516367d9dca160e11b815260040160405180910390fd5b61064b838383611581565b6001546001600160801b03600160801b82048116918116919091031690565b61064b8383836115dd565b60006107e483610e5d565b8210610803576040516306ed618760e11b815260040160405180910390fd5b6001546001600160801b0316600080805b838110156108cf57600081815260046020908152604091829020825160608101845290546001600160a01b0381168252600160a01b81046001600160401b031692820192909252600160e01b90910460ff16158015928201929092529061087b57506108c7565b80516001600160a01b03161561089057805192505b876001600160a01b0316836001600160a01b031614156108c557868414156108be575093506105e692505050565b6001909301925b505b600101610814565b50600080fd5b61064b83838360405180602001604052806000815250611397565b600e5460ff1615156001146109435760405162461bcd60e51b815260206004820152601460248201527357484954454c4953545f4e4f545f41435449564560601b60448201526064015b60405180910390fd5b600c5442101561098d5760405162461bcd60e51b81526020600482015260156024820152744e4f545f494e5f57484954454c4953545f54494d4560581b604482015260640161093a565b6009546109a28461099c6107af565b90611807565b11156109e45760405162461bcd60e51b815260206004820152601160248201527015d317d4d51051d157d4d3d31117d3d555607a1b604482015260640161093a565b6109ee8282610ebf565b610a3a5760405162461bcd60e51b815260206004820152601a60248201527f4e4f545f454c494749424c455f464f545f57484954454c495354000000000000604482015260640161093a565b600083118015610a645750336000908152601360205260409020548290610a619085611807565b11155b610ab05760405162461bcd60e51b815260206004820152601760248201527f455843454544535f4d41585f574c5f5155414e54495459000000000000000000604482015260640161093a565b33600090815260136020526040902054610aca9084611807565b33600081815260136020526040902091909155610ae7908461181a565b7f9670c8b300c38cd3db8d3f9429dd902e67f418c4dd193e2497f06d20efc795603384610b126107af565b604080516001600160a01b03909416845260208401929092529082015260600160405180910390a1505050565b6001546000906001600160801b031681805b82811015610bd157600081815260046020908152604091829020825160608101845290546001600160a01b0381168252600160a01b81046001600160401b031692820192909252600160e01b90910460ff16151591810182905290610bc85785831415610bc15750949350505050565b6001909201915b50600101610b51565b506040516329c8c00760e21b815260040160405180910390fd5b6000610bf682611834565b5192915050565b610c056114f1565b826000805b82811015610c5857848482818110610c3257634e487b7160e01b600052603260045260246000fd5b9050602002013582610c449190612a9c565b915080610c5081612b1b565b915050610c0a565b5060085481610c656107af565b610c6f9190612a9c565b1115610caf5760405162461bcd60e51b815260206004820152600f60248201526e115610d1515114d7d3505617d39195608a1b604482015260640161093a565b60005b82811015610ddd57610d1e878783818110610cdd57634e487b7160e01b600052603260045260246000fd5b9050602002016020810190610cf291906125e4565b868684818110610d1257634e487b7160e01b600052603260045260246000fd5b9050602002013561181a565b7f9670c8b300c38cd3db8d3f9429dd902e67f418c4dd193e2497f06d20efc79560878783818110610d5f57634e487b7160e01b600052603260045260246000fd5b9050602002016020810190610d7491906125e4565b868684818110610d9457634e487b7160e01b600052603260045260246000fd5b90506020020135610da36107af565b604080516001600160a01b03909416845260208401929092529082015260600160405180910390a180610dd581612b1b565b915050610cb2565b50505050505050565b610dee6114f1565b6001600160a01b038116610e3b5760405162461bcd60e51b815260206004820152601460248201527353455454494e475f5a45524f5f4144445245535360601b604482015260640161093a565b601180546001600160a01b0319166001600160a01b0392909216919091179055565b60006001600160a01b038216610e86576040516323d3ad8160e21b815260040160405180910390fd5b506001600160a01b03166000908152600560205260409020546001600160401b031690565b610eb36114f1565b610ebd6000611958565b565b600080610f30610f2a7f182854de6a51f3818344a7eb784b9d55c1e6d2d20c9f9aea309f5daaaaddfec1336040805160208101939093526001600160a01b039091169082015260608101879052608001604051602081830303815290604052805190602001206119a8565b846119f6565b6011546001600160a01b03918216911614949350505050565b323314610f8d5760405162461bcd60e51b815260206004820152601260248201527110d05313115497d254d7d0d3d395149050d560721b604482015260640161093a565b600e5460ff610100909104161515600114610fdc5760405162461bcd60e51b815260206004820152600f60248201526e53414c455f4e4f545f41435449564560881b604482015260640161093a565b600d544210156110215760405162461bcd60e51b815260206004820152601060248201526f4e4f545f494e5f53414c455f54494d4560801b604482015260640161093a565b600a546110308261099c6107af565b11156110725760405162461bcd60e51b81526020600482015260116024820152701414d7d4d51051d157d4d3d31117d3d555607a1b604482015260640161093a565b6008546110818261099c6107af565b11156110c15760405162461bcd60e51b815260206004820152600f60248201526e115610d1515114d7d3505617d39195608a1b604482015260640161093a565b6000811180156110ec5750600b54336000908152601260205260409020546110e99083611807565b11155b6111385760405162461bcd60e51b815260206004820152601760248201527f455843454544535f4d41585f50535f5155414e54495459000000000000000000604482015260640161093a565b336000908152601260205260409020546111529082611807565b3360008181526012602052604090209190915561116f908261181a565b7f9670c8b300c38cd3db8d3f9429dd902e67f418c4dd193e2497f06d20efc79560338261119a6107af565b604080516001600160a01b03909416845260208401929092529082015260600160405180910390a150565b60606003805461065f90612ae0565b600e5462010000900460ff1615156001146112235760405162461bcd60e51b815260206004820152600f60248201526e4255524e5f4e4f545f41435449564560881b604482015260640161093a565b6001600160a01b03821632148061123f575061123f823361052c565b61128b5760405162461bcd60e51b815260206004820152601d60248201527f43414c4c45525f4e4f545f4f574e45525f4e4f525f415050524f564544000000604482015260640161093a565b816001600160a01b031661129e82610beb565b6001600160a01b0316146112f45760405162461bcd60e51b815260206004820152601960248201527f414444524553535f4e4f545f544f4b454e49445f4f574e455200000000000000604482015260640161093a565b6112fd81611a1a565b5050565b6001600160a01b03821633141561132b5760405163b06307db60e01b815260040160405180910390fd5b3360008181526007602090815260408083206001600160a01b03871680855290835292819020805460ff191686151590811790915590519081529192917f17307eab39ab6107e8899845ad3d59bd9653f200f220920489ca2b5937696c31910160405180910390a35050565b6113a28484846115dd565b6113ae84848484611bc9565b6113cb576040516368d2bf6b60e11b815260040160405180910390fd5b50505050565b60606113dc8261154b565b61141b5760405162461bcd60e51b815260206004820152601060248201526f544f4b454e5f4e4f545f45584953545360801b604482015260640161093a565b600f61142683611cd8565b6040516020016114379291906129a6565b6040516020818303038152906040529050919050565b6114556114f1565b600893909355600991909155600a55600b55565b6114716114f1565b6001600160a01b0381166114d65760405162461bcd60e51b815260206004820152602660248201527f4f776e61626c653a206e6577206f776e657220697320746865207a65726f206160448201526564647265737360d01b606482015260840161093a565b6114df81611958565b50565b6001600160a01b03163b151590565b6000546001600160a01b03163314610ebd5760405162461bcd60e51b815260206004820181905260248201527f4f776e61626c653a2063616c6c6572206973206e6f7420746865206f776e6572604482015260640161093a565b6001546000906001600160801b0316821080156105e6575050600090815260046020526040902054600160e01b900460ff161590565b60008281526006602052604080822080546001600160a01b0319166001600160a01b0387811691821790925591518593918516917f8c5be1e5ebec7d5bd14f71427d1e84f3dd0314c0f7b2291e5b200ac8c7c3b92591a4505050565b60006115e882611834565b80519091506000906001600160a01b0316336001600160a01b0316148061161657508151611616903361052c565b80611631575033611626846106e2565b6001600160a01b0316145b90508061165157604051632ce44b5f60e11b815260040160405180910390fd5b846001600160a01b031682600001516001600160a01b0316146116865760405162a1148160e81b815260040160405180910390fd5b6001600160a01b0384166116ad57604051633a954ecd60e21b815260040160405180910390fd5b6116ba8585856001611d7a565b6116ca6000848460000151611581565b6001600160a01b038581166000908152600560209081526040808320805467ffffffffffffffff198082166001600160401b0392831660001901831617909255898616808652838620805493841693831660019081018416949094179055898652600490945282852080546001600160e01b031916909417600160a01b4290921691909102179092559086018083529120549091166117bd576001546001600160801b03168110156117bd57825160008281526004602090815260409091208054918601516001600160401b0316600160a01b026001600160e01b03199092166001600160a01b03909316929092171790555b5082846001600160a01b0316866001600160a01b03167fddf252ad1be2c89b69c2b068fc378daa952ba7f163c4a11628f55a4df523b3ef60405160405180910390a45b5050505050565b60006118138284612a9c565b9392505050565b6112fd828260405180602001604052806000815250611e26565b604080516060810182526000808252602082018190529181019190915260015482906001600160801b031681101561193f57600081815260046020908152604091829020825160608101845290546001600160a01b0381168252600160a01b81046001600160401b031692820192909252600160e01b90910460ff1615159181018290529061193d5780516001600160a01b0316156118d4579392505050565b5060001901600081815260046020908152604091829020825160608101845290546001600160a01b038116808352600160a01b82046001600160401b031693830193909352600160e01b900460ff1615159281019290925215611938579392505050565b6118d4565b505b604051636f96cda160e11b815260040160405180910390fd5b600080546001600160a01b038381166001600160a01b0319831681178455604051919092169283917f8be0079c531659141344cd1fd0a4f28419497f9722a3daafe3b4186f6b6457e09190a35050565b60006105e66119b5611e33565b8360405161190160f01b6020820152602281018390526042810182905260009060620160405160208183030381529060405280519060200120905092915050565b6000806000611a058585611f5a565b91509150611a1281611fa0565b509392505050565b6000611a2582611834565b9050611a3981600001516000846001611d7a565b611a496000838360000151611581565b80516001600160a01b039081166000908152600560209081526040808320805467ffffffffffffffff1981166001600160401b0391821660001901821617909155855185168452818420805467ffffffffffffffff60801b198116600160801b9182900484166001908101851690920217909155865188865260049094528285208054600160e01b9588166001600160e01b031990911617600160a01b42909416939093029290921760ff60e01b1916939093179055908501808352912054909116611b69576001546001600160801b0316811015611b6957815160008281526004602090815260409091208054918501516001600160401b0316600160a01b026001600160e01b03199092166001600160a01b03909316929092171790555b50805160405183916000916001600160a01b03909116907fddf252ad1be2c89b69c2b068fc378daa952ba7f163c4a11628f55a4df523b3ef908390a45050600180546001600160801b03600160801b808304821684018216029116179055565b60006001600160a01b0384163b15611ccc57604051630a85bd0160e11b81526001600160a01b0385169063150b7a0290611c0d903390899088908890600401612a4c565b602060405180830381600087803b158015611c2757600080fd5b505af1925050508015611c57575060408051601f3d908101601f19168201909252611c54918101906127fc565b60015b611cb2573d808015611c85576040519150601f19603f3d011682016040523d82523d6000602084013e611c8a565b606091505b508051611caa576040516368d2bf6b60e11b815260040160405180910390fd5b805181602001fd5b6001600160e01b031916630a85bd0160e11b149050611cd0565b5060015b949350505050565b60606000611ce583612126565b60010190506000816001600160401b03811115611d1257634e487b7160e01b600052604160045260246000fd5b6040519080825280601f01601f191660200182016040528015611d3c576020820181803683370190505b5090508181016020015b600019016f181899199a1a9b1b9c1cb0b131b232b360811b600a86061a8153600a8504945084611d7557611a12565b611d46565b60005b81811015611800576000611d918285612a9c565b905060328110158015611da5575060738111155b15611e13576001600160a01b0386161580611dc757506001600160a01b038516155b611e135760405162461bcd60e51b815260206004820152601b60248201527f534f554c424f554e443a204e6f6e2d5472616e7366657261626c650000000000604482015260640161093a565b5080611e1e81612b1b565b915050611d7d565b61064b83838360016121fe565b6000306001600160a01b037f000000000000000000000000000000000000000000000000000000000000000016148015611e8c57507f000000000000000000000000000000000000000000000000000000000000000046145b15611eb657507f000000000000000000000000000000000000000000000000000000000000000090565b50604080517f00000000000000000000000000000000000000000000000000000000000000006020808301919091527f0000000000000000000000000000000000000000000000000000000000000000828401527f000000000000000000000000000000000000000000000000000000000000000060608301524660808301523060a0808401919091528351808403909101815260c0909201909252805191012090565b600080825160411415611f915760208301516040840151606085015160001a611f8587828585612393565b94509450505050611f99565b506000905060025b9250929050565b6000816004811115611fc257634e487b7160e01b600052602160045260246000fd5b1415611fcb5750565b6001816004811115611fed57634e487b7160e01b600052602160045260246000fd5b141561203b5760405162461bcd60e51b815260206004820152601860248201527f45434453413a20696e76616c6964207369676e61747572650000000000000000604482015260640161093a565b600281600481111561205d57634e487b7160e01b600052602160045260246000fd5b14156120ab5760405162461bcd60e51b815260206004820152601f60248201527f45434453413a20696e76616c6964207369676e6174757265206c656e67746800604482015260640161093a565b60038160048111156120cd57634e487b7160e01b600052602160045260246000fd5b14156114df5760405162461bcd60e51b815260206004820152602260248201527f45434453413a20696e76616c6964207369676e6174757265202773272076616c604482015261756560f01b606482015260840161093a565b60008072184f03e93ff9f4daa797ed6e38ed64bf6a1f0160401b83106121655772184f03e93ff9f4daa797ed6e38ed64bf6a1f0160401b830492506040015b6d04ee2d6d415b85acef81000000008310612191576d04ee2d6d415b85acef8100000000830492506020015b662386f26fc1000083106121af57662386f26fc10000830492506010015b6305f5e10083106121c7576305f5e100830492506008015b61271083106121db57612710830492506004015b606483106121ed576064830492506002015b600a83106105e65760010192915050565b6001546001600160801b03166001600160a01b03851661223057604051622e076360e81b815260040160405180910390fd5b8361224e5760405163b562e8dd60e01b815260040160405180910390fd5b61225b6000868387611d7a565b6001600160a01b038516600081815260056020908152604080832080546001600160801b031981166001600160401b038083168c0181169182176801000000000000000067ffffffffffffffff1990941690921783900481168c018116909202179091558584526004909252822080546001600160e01b031916909317600160a01b42909216919091021790915581905b8581101561236d5760405182906001600160a01b038916906000907fddf252ad1be2c89b69c2b068fc378daa952ba7f163c4a11628f55a4df523b3ef908290a483801561234357506123416000888488611bc9565b155b15612361576040516368d2bf6b60e11b815260040160405180910390fd5b600191820191016122ec565b50600180546001600160801b0319166001600160801b0392909216919091179055611800565b6000807f7fffffffffffffffffffffffffffffff5d576e7357a4501ddfe92f46681b20a08311156123ca575060009050600361244e565b6040805160008082526020820180845289905260ff881692820192909252606081018690526080810185905260019060a0016020604051602081039080840390855afa15801561241e573d6000803e3d6000fd5b5050604051601f1901519150506001600160a01b0381166124475760006001925092505061244e565b9150600090505b94509492505050565b82805461246390612ae0565b90600052602060002090601f01602090048101928261248557600085556124cb565b82601f1061249e5782800160ff198235161785556124cb565b828001600101855582156124cb579182015b828111156124cb5782358255916020019190600101906124b0565b506124d79291506124db565b5090565b5b808211156124d757600081556001016124dc565b80356001600160a01b038116811461250757600080fd5b919050565b60008083601f84011261251d578081fd5b5081356001600160401b03811115612533578182fd5b6020830191508360208260051b8501011115611f9957600080fd5b8035801515811461250757600080fd5b600082601f83011261256e578081fd5b81356001600160401b038082111561258857612588612b4c565b604051601f8301601f19908116603f011681019082821181831017156125b0576125b0612b4c565b816040528381528660208588010111156125c8578485fd5b8360208701602083013792830160200193909352509392505050565b6000602082840312156125f5578081fd5b611813826124f0565b60008060408385031215612610578081fd5b612619836124f0565b9150612627602084016124f0565b90509250929050565b600080600060608486031215612644578081fd5b61264d846124f0565b925061265b602085016124f0565b9150604084013590509250925092565b60008060008060808587031215612680578081fd5b612689856124f0565b9350612697602086016124f0565b92506040850135915060608501356001600160401b038111156126b8578182fd5b6126c48782880161255e565b91505092959194509250565b600080604083850312156126e2578182fd5b6126eb836124f0565b91506126276020840161254e565b6000806040838503121561270b578182fd5b612714836124f0565b946020939093013593505050565b60008060008060408587031215612737578384fd5b84356001600160401b038082111561274d578586fd5b6127598883890161250c565b90965094506020870135915080821115612771578384fd5b5061277e8782880161250c565b95989497509550505050565b600080600080600060a086880312156127a1578081fd5b6127aa8661254e565b9450602086013593506127bf6040870161254e565b9250606086013591506127d46080870161254e565b90509295509295909350565b6000602082840312156127f1578081fd5b813561181381612b62565b60006020828403121561280d578081fd5b815161181381612b62565b6000806020838503121561282a578182fd5b82356001600160401b0380821115612840578384fd5b818501915085601f830112612853578384fd5b813581811115612861578485fd5b866020828501011115612872578485fd5b60209290920196919550909350505050565b600060208284031215612895578081fd5b5035919050565b600080604083850312156128ae578182fd5b8235915060208301356001600160401b038111156128ca578182fd5b6128d68582860161255e565b9150509250929050565b6000806000606084860312156128f4578081fd5b833592506020840135915060408401356001600160401b03811115612917578182fd5b6129238682870161255e565b9150509250925092565b60008060008060808587031215612942578182fd5b5050823594602084013594506040840135936060013592509050565b60008151808452612976816020860160208601612ab4565b601f01601f19169290920160200192915050565b6000815161299c818560208601612ab4565b9290920192915050565b600080845482600182811c9150808316806129c257607f831692505b60208084108214156129e257634e487b7160e01b87526022600452602487fd5b8180156129f65760018114612a0757612a33565b60ff19861689528489019650612a33565b60008b815260209020885b86811015612a2b5781548b820152908501908301612a12565b505084890196505b505050505050612a43818561298a565b95945050505050565b6001600160a01b0385811682528416602082015260408101839052608060608201819052600090612a7f9083018461295e565b9695505050505050565b602081526000611813602083018461295e565b60008219821115612aaf57612aaf612b36565b500190565b60005b83811015612acf578181015183820152602001612ab7565b838111156113cb5750506000910152565b600181811c90821680612af457607f821691505b60208210811415612b1557634e487b7160e01b600052602260045260246000fd5b50919050565b6000600019821415612b2f57612b2f612b36565b5060010190565b634e487b7160e01b600052601160045260246000fd5b634e487b7160e01b600052604160045260246000fd5b6001600160e01b0319811681146114df57600080fdfea2646970667358221220a6d1fd43641f8d8d5e5023e501c68681e51da8bf6f5707802bd5dc8e50fd6eeb64736f6c63430008040033687474703a2f2f776f6e6465726c616e642e61696372656174653336302e636f6d2f4d657461646174612f",
  "devdoc": {
    "kind": "dev",
    "methods": {
      "approve(address,uint256)": {
        "details": "See {IERC721-approve}."
      },
      "balanceOf(address)": {
        "details": "See {IERC721-balanceOf}."
      },
      "getApproved(uint256)": {
        "details": "See {IERC721-getApproved}."
      },
      "isApprovedForAll(address,address)": {
        "details": "See {IERC721-isApprovedForAll}."
      },
      "name()": {
        "details": "See {IERC721Metadata-name}."
      },
      "owner()": {
        "details": "Returns the address of the current owner."
      },
      "ownerOf(uint256)": {
        "details": "See {IERC721-ownerOf}."
      },
      "renounceOwnership()": {
        "details": "Leaves the contract without owner. It will not be possible to call `onlyOwner` functions anymore. Can only be called by the current owner. NOTE: Renouncing ownership will leave the contract without an owner, thereby removing any functionality that is only available to the owner."
      },
      "safeTransferFrom(address,address,uint256)": {
        "details": "See {IERC721-safeTransferFrom}."
      },
      "safeTransferFrom(address,address,uint256,bytes)": {
        "details": "See {IERC721-safeTransferFrom}."
      },
      "setApprovalForAll(address,bool)": {
        "details": "See {IERC721-setApprovalForAll}."
      },
      "supportsInterface(bytes4)": {
        "details": "See {IERC165-supportsInterface}."
      },
      "symbol()": {
        "details": "See {IERC721Metadata-symbol}."
      },
      "tokenByIndex(uint256)": {
        "details": "See {IERC721Enumerable-tokenByIndex}. This read function is O(totalSupply). If calling from a separate contract, be sure to test gas first. It may also degrade with extremely large collection sizes (e.g >> 10000), test for your use case."
      },
      "tokenOfOwnerByIndex(address,uint256)": {
        "details": "See {IERC721Enumerable-tokenOfOwnerByIndex}. This read function is O(totalSupply). If calling from a separate contract, be sure to test gas first. It may also degrade with extremely large collection sizes (e.g >> 10000), test for your use case."
      },
      "tokenURI(uint256)": {
        "details": "See {IERC721Metadata-tokenURI}."
      },
      "totalSupply()": {
        "details": "See {IERC721Enumerable-totalSupply}."
      },
      "transferFrom(address,address,uint256)": {
        "details": "See {IERC721-transferFrom}."
      },
      "transferOwnership(address)": {
        "details": "Transfers ownership of the contract to a new account (`newOwner`). Can only be called by the current owner."
      }
    },
    "version": 1
  },
  "userdoc": {
    "kind": "user",
    "methods": {},
    "version": 1
  },
  "storageLayout": {
    "storage": [
      {
        "astId": 7,
        "contract": "contracts/wonderland_aicreate360.sol:wonderland_aicreate360",
        "label": "_owner",
        "offset": 0,
        "slot": "0",
        "type": "t_address"
      },
      {
        "astId": 3938,
        "contract": "contracts/wonderland_aicreate360.sol:wonderland_aicreate360",
        "label": "_currentIndex",
        "offset": 0,
        "slot": "1",
        "type": "t_uint128"
      },
      {
        "astId": 3940,
        "contract": "contracts/wonderland_aicreate360.sol:wonderland_aicreate360",
        "label": "_burnCounter",
        "offset": 16,
        "slot": "1",
        "type": "t_uint128"
      },
      {
        "astId": 3942,
        "contract": "contracts/wonderland_aicreate360.sol:wonderland_aicreate360",
        "label": "_name",
        "offset": 0,
        "slot": "2",
        "type": "t_string_storage"
      },
      {
        "astId": 3944,
        "contract": "contracts/wonderland_aicreate360.sol:wonderland_aicreate360",
        "label": "_symbol",
        "offset": 0,
        "slot": "3",
        "type": "t_string_storage"
      },
      {
        "astId": 3949,
        "contract": "contracts/wonderland_aicreate360.sol:wonderland_aicreate360",
        "label": "_ownerships",
        "offset": 0,
        "slot": "4",
        "type": "t_mapping(t_uint256,t_struct(TokenOwnership)3929_storage)"
      },
      {
        "astId": 3954,
        "contract": "contracts/wonderland_aicreate360.sol:wonderland_aicreate360",
        "label": "_addressData",
        "offset": 0,
        "slot": "5",
        "type": "t_mapping(t_address,t_struct(AddressData)3936_storage)"
      },
      {
        "astId": 3958,
        "contract": "contracts/wonderland_aicreate360.sol:wonderland_aicreate360",
        "label": "_tokenApprovals",
        "offset": 0,
        "slot": "6",
        "type": "t_mapping(t_uint256,t_address)"
      },
      {
        "astId": 3964,
        "contract": "contracts/wonderland_aicreate360.sol:wonderland_aicreate360",
        "label": "_operatorApprovals",
        "offset": 0,
        "slot": "7",
        "type": "t_mapping(t_address,t_mapping(t_address,t_bool))"
      },
      {
        "astId": 5279,
        "contract": "contracts/wonderland_aicreate360.sol:wonderland_aicreate360",
        "label": "MAX_NFT",
        "offset": 0,
        "slot": "8",
        "type": "t_uint256"
      },
      {
        "astId": 5282,
        "contract": "contracts/wonderland_aicreate360.sol:wonderland_aicreate360",
        "label": "WL_STAGE_LIMIT",
        "offset": 0,
        "slot": "9",
        "type": "t_uint256"
      },
      {
        "astId": 5285,
        "contract": "contracts/wonderland_aicreate360.sol:wonderland_aicreate360",
        "label": "PS_STAGE_LIMIT",
        "offset": 0,
        "slot": "10",
        "type": "t_uint256"
      },
      {
        "astId": 5288,
        "contract": "contracts/wonderland_aicreate360.sol:wonderland_aicreate360",
        "label": "MAX_PS_ADDRESS_TOKEN",
        "offset": 0,
        "slot": "11",
        "type": "t_uint256"
      },
      {
        "astId": 5291,
        "contract": "contracts/wonderland_aicreate360.sol:wonderland_aicreate360",
        "label": "whitelistSaleTimestamp",
        "offset": 0,
        "slot": "12",
        "type": "t_uint256"
      },
      {
        "astId": 5294,
        "contract": "contracts/wonderland_aicreate360.sol:wonderland_aicreate360",
        "label": "publicSaleTimestamp",
        "offset": 0,
        "slot": "13",
        "type": "t_uint256"
      },
      {
        "astId": 5297,
        "contract": "contracts/wonderland_aicreate360.sol:wonderland_aicreate360",
        "label": "hasWhitelistSaleStarted",
        "offset": 0,
        "slot": "14",
        "type": "t_bool"
      },
      {
        "astId": 5300,
        "contract": "contracts/wonderland_aicreate360.sol:wonderland_aicreate360",
        "label": "hasPublicSaleStarted",
        "offset": 1,
        "slot": "14",
        "type": "t_bool"
      },
      {
        "astId": 5303,
        "contract": "contracts/wonderland_aicreate360.sol:wonderland_aicreate360",
        "label": "hasBurnStarted",
        "offset": 2,
        "slot": "14",
        "type": "t_bool"
      },
      {
        "astId": 5306,
        "contract": "contracts/wonderland_aicreate360.sol:wonderland_aicreate360",
        "label": "_baseTokenURI",
        "offset": 0,
        "slot": "15",
        "type": "t_string_storage"
      },
      {
        "astId": 5309,
        "contract": "contracts/wonderland_aicreate360.sol:wonderland_aicreate360",
        "label": "treasury",
        "offset": 0,
        "slot": "16",
        "type": "t_address"
      },
      {
        "astId": 5312,
        "contract": "contracts/wonderland_aicreate360.sol:wonderland_aicreate360",
        "label": "signer",
        "offset": 0,
        "slot": "17",
        "type": "t_address"
      },
      {
        "astId": 5316,
        "contract": "contracts/wonderland_aicreate360.sol:wonderland_aicreate360",
        "label": "hasPSMinted",
        "offset": 0,
        "slot": "18",
        "type": "t_mapping(t_address,t_uint256)"
      },
      {
        "astId": 5320,
        "contract": "contracts/wonderland_aicreate360.sol:wonderland_aicreate360",
        "label": "hasWLMinted",
        "offset": 0,
        "slot": "19",
        "type": "t_mapping(t_address,t_uint256)"
      }
    ],
    "types": {
      "t_address": {
        "encoding": "inplace",
        "label": "address",
        "numberOfBytes": "20"
      },
      "t_bool": {
        "encoding": "inplace",
        "label": "bool",
        "numberOfBytes": "1"
      },
      "t_mapping(t_address,t_bool)": {
        "encoding": "mapping",
        "key": "t_address",
        "label": "mapping(address => bool)",
        "numberOfBytes": "32",
        "value": "t_bool"
      },
      "t_mapping(t_address,t_mapping(t_address,t_bool))": {
        "encoding": "mapping",
        "key": "t_address",
        "label": "mapping(address => mapping(address => bool))",
        "numberOfBytes": "32",
        "value": "t_mapping(t_address,t_bool)"
      },
      "t_mapping(t_address,t_struct(AddressData)3936_storage)": {
        "encoding": "mapping",
        "key": "t_address",
        "label": "mapping(address => struct ERC721A.AddressData)",
        "numberOfBytes": "32",
        "value": "t_struct(AddressData)3936_storage"
      },
      "t_mapping(t_address,t_uint256)": {
        "encoding": "mapping",
        "key": "t_address",
        "label": "mapping(address => uint256)",
        "numberOfBytes": "32",
        "value": "t_uint256"
      },
      "t_mapping(t_uint256,t_address)": {
        "encoding": "mapping",
        "key": "t_uint256",
        "label": "mapping(uint256 => address)",
        "numberOfBytes": "32",
        "value": "t_address"
      },
      "t_mapping(t_uint256,t_struct(TokenOwnership)3929_storage)": {
        "encoding": "mapping",
        "key": "t_uint256",
        "label": "mapping(uint256 => struct ERC721A.TokenOwnership)",
        "numberOfBytes": "32",
        "value": "t_struct(TokenOwnership)3929_storage"
      },
      "t_string_storage": {
        "encoding": "bytes",
        "label": "string",
        "numberOfBytes": "32"
      },
      "t_struct(AddressData)3936_storage": {
        "encoding": "inplace",
        "label": "struct ERC721A.AddressData",
        "members": [
          {
            "astId": 3931,
            "contract": "contracts/wonderland_aicreate360.sol:wonderland_aicreate360",
            "label": "balance",
            "offset": 0,
            "slot": "0",
            "type": "t_uint64"
          },
          {
            "astId": 3933,
            "contract": "contracts/wonderland_aicreate360.sol:wonderland_aicreate360",
            "label": "numberMinted",
            "offset": 8,
            "slot": "0",
            "type": "t_uint64"
          },
          {
            "astId": 3935,
            "contract": "contracts/wonderland_aicreate360.sol:wonderland_aicreate360",
            "label": "numberBurned",
            "offset": 16,
            "slot": "0",
            "type": "t_uint64"
          }
        ],
        "numberOfBytes": "32"
      },
      "t_struct(TokenOwnership)3929_storage": {
        "encoding": "inplace",
        "label": "struct ERC721A.TokenOwnership",
        "members": [
          {
            "astId": 3924,
            "contract": "contracts/wonderland_aicreate360.sol:wonderland_aicreate360",
            "label": "addr",
            "offset": 0,
            "slot": "0",
            "type": "t_address"
          },
          {
            "astId": 3926,
            "contract": "contracts/wonderland_aicreate360.sol:wonderland_aicreate360",
            "label": "startTimestamp",
            "offset": 20,
            "slot": "0",
            "type": "t_uint64"
          },
          {
            "astId": 3928,
            "contract": "contracts/wonderland_aicreate360.sol:wonderland_aicreate360",
            "label": "burned",
            "offset": 28,
            "slot": "0",
            "type": "t_bool"
          }
        ],
        "numberOfBytes": "32"
      },
      "t_uint128": {
        "encoding": "inplace",
        "label": "uint128",
        "numberOfBytes": "16"
      },
      "t_uint256": {
        "encoding": "inplace",
        "label": "uint256",
        "numberOfBytes": "32"
      },
      "t_uint64": {
        "encoding": "inplace",
        "label": "uint64",
        "numberOfBytes": "8"
      }
    }
  }
}