{
  "address": "0xf7F0a4E88e5DC28f76168dE519557D238BEC2F88",
  "abi": [
    {
      "inputs": [],
      "stateMutability": "nonpayable",
      "type": "constructor"
    },
    {
      "inputs": [],
      "name": "ApprovalCallerNotOwnerNorApproved",
      "type": "error"
    },
    {
      "inputs": [],
      "name": "ApprovalQueryForNonexistentToken",
      "type": "error"
    },
    {
      "inputs": [],
      "name": "ApprovalToCurrentOwner",
      "type": "error"
    },
    {
      "inputs": [],
      "name": "ApproveToCaller",
      "type": "error"
    },
    {
      "inputs": [],
      "name": "BalanceQueryForZeroAddress",
      "type": "error"
    },
    {
      "inputs": [],
      "name": "MintToZeroAddress",
      "type": "error"
    },
    {
      "inputs": [],
      "name": "MintZeroQuantity",
      "type": "error"
    },
    {
      "inputs": [],
      "name": "OwnerIndexOutOfBounds",
      "type": "error"
    },
    {
      "inputs": [],
      "name": "OwnerQueryForNonexistentToken",
      "type": "error"
    },
    {
      "inputs": [],
      "name": "TokenIndexOutOfBounds",
      "type": "error"
    },
    {
      "inputs": [],
      "name": "TransferCallerNotOwnerNorApproved",
      "type": "error"
    },
    {
      "inputs": [],
      "name": "TransferFromIncorrectOwner",
      "type": "error"
    },
    {
      "inputs": [],
      "name": "TransferToNonERC721ReceiverImplementer",
      "type": "error"
    },
    {
      "inputs": [],
      "name": "TransferToZeroAddress",
      "type": "error"
    },
    {
      "anonymous": false,
      "inputs": [
        {
          "indexed": true,
          "internalType": "address",
          "name": "owner",
          "type": "address"
        },
        {
          "indexed": true,
          "internalType": "address",
          "name": "approved",
          "type": "address"
        },
        {
          "indexed": true,
          "internalType": "uint256",
          "name": "tokenId",
          "type": "uint256"
        }
      ],
      "name": "Approval",
      "type": "event"
    },
    {
      "anonymous": false,
      "inputs": [
        {
          "indexed": true,
          "internalType": "address",
          "name": "owner",
          "type": "address"
        },
        {
          "indexed": true,
          "internalType": "address",
          "name": "operator",
          "type": "address"
        },
        {
          "indexed": false,
          "internalType": "bool",
          "name": "approved",
          "type": "bool"
        }
      ],
      "name": "ApprovalForAll",
      "type": "event"
    },
    {
      "anonymous": false,
      "inputs": [
        {
          "indexed": true,
          "internalType": "address",
          "name": "previousOwner",
          "type": "address"
        },
        {
          "indexed": true,
          "internalType": "address",
          "name": "newOwner",
          "type": "address"
        }
      ],
      "name": "OwnershipTransferred",
      "type": "event"
    },
    {
      "anonymous": false,
      "inputs": [
        {
          "indexed": true,
          "internalType": "address",
          "name": "from",
          "type": "address"
        },
        {
          "indexed": true,
          "internalType": "address",
          "name": "to",
          "type": "address"
        },
        {
          "indexed": true,
          "internalType": "uint256",
          "name": "tokenId",
          "type": "uint256"
        }
      ],
      "name": "Transfer",
      "type": "event"
    },
    {
      "anonymous": false,
      "inputs": [
        {
          "indexed": false,
          "internalType": "address",
          "name": "owner",
          "type": "address"
        },
        {
          "indexed": false,
          "internalType": "uint256",
          "name": "quantity",
          "type": "uint256"
        },
        {
          "indexed": false,
          "internalType": "uint256",
          "name": "totalSupply",
          "type": "uint256"
        }
      ],
      "name": "mintEvent",
      "type": "event"
    },
    {
      "inputs": [],
      "name": "MAX_NFT",
      "outputs": [
        {
          "internalType": "uint256",
          "name": "",
          "type": "uint256"
        }
      ],
      "stateMutability": "view",
      "type": "function"
    },
    {
      "inputs": [],
      "name": "MAX_PS_ADDRESS_TOKEN",
      "outputs": [
        {
          "internalType": "uint256",
          "name": "",
          "type": "uint256"
        }
      ],
      "stateMutability": "view",
      "type": "function"
    },
    {
      "inputs": [],
      "name": "PRICE",
      "outputs": [
        {
          "internalType": "uint256",
          "name": "",
          "type": "uint256"
        }
      ],
      "stateMutability": "view",
      "type": "function"
    },
    {
      "inputs": [],
      "name": "PS_STAGE_LIMIT",
      "outputs": [
        {
          "internalType": "uint256",
          "name": "",
          "type": "uint256"
        }
      ],
      "stateMutability": "view",
      "type": "function"
    },
    {
      "inputs": [],
      "name": "WL_STAGE_LIMIT",
      "outputs": [
        {
          "internalType": "uint256",
          "name": "",
          "type": "uint256"
        }
      ],
      "stateMutability": "view",
      "type": "function"
    },
    {
      "inputs": [
        {
          "internalType": "address[]",
          "name": "_to",
          "type": "address[]"
        },
        {
          "internalType": "uint256[]",
          "name": "quantity",
          "type": "uint256[]"
        }
      ],
      "name": "airdrop",
      "outputs": [],
      "stateMutability": "nonpayable",
      "type": "function"
    },
    {
      "inputs": [
        {
          "internalType": "address",
          "name": "to",
          "type": "address"
        },
        {
          "internalType": "uint256",
          "name": "tokenId",
          "type": "uint256"
        }
      ],
      "name": "approve",
      "outputs": [],
      "stateMutability": "nonpayable",
      "type": "function"
    },
    {
      "inputs": [
        {
          "internalType": "address",
          "name": "owner",
          "type": "address"
        }
      ],
      "name": "balanceOf",
      "outputs": [
        {
          "internalType": "uint256",
          "name": "",
          "type": "uint256"
        }
      ],
      "stateMutability": "view",
      "type": "function"
    },
    {
      "inputs": [
        {
          "internalType": "address",
          "name": "account",
          "type": "address"
        },
        {
          "internalType": "uint256",
          "name": "id",
          "type": "uint256"
        }
      ],
      "name": "burn",
      "outputs": [],
      "stateMutability": "nonpayable",
      "type": "function"
    },
    {
      "inputs": [
        {
          "internalType": "uint256",
          "name": "tokenId",
          "type": "uint256"
        }
      ],
      "name": "getApproved",
      "outputs": [
        {
          "internalType": "address",
          "name": "",
          "type": "address"
        }
      ],
      "stateMutability": "view",
      "type": "function"
    },
    {
      "inputs": [],
      "name": "hasBurnStarted",
      "outputs": [
        {
          "internalType": "bool",
          "name": "",
          "type": "bool"
        }
      ],
      "stateMutability": "view",
      "type": "function"
    },
    {
      "inputs": [
        {
          "internalType": "address",
          "name": "",
          "type": "address"
        }
      ],
      "name": "hasPSMinted",
      "outputs": [
        {
          "internalType": "uint256",
          "name": "",
          "type": "uint256"
        }
      ],
      "stateMutability": "view",
      "type": "function"
    },
    {
      "inputs": [],
      "name": "hasPublicSaleStarted",
      "outputs": [
        {
          "internalType": "bool",
          "name": "",
          "type": "bool"
        }
      ],
      "stateMutability": "view",
      "type": "function"
    },
    {
      "inputs": [
        {
          "internalType": "address",
          "name": "",
          "type": "address"
        }
      ],
      "name": "hasWLMinted",
      "outputs": [
        {
          "internalType": "uint256",
          "name": "",
          "type": "uint256"
        }
      ],
      "stateMutability": "view",
      "type": "function"
    },
    {
      "inputs": [],
      "name": "hasWhitelistSaleStarted",
      "outputs": [
        {
          "internalType": "bool",
          "name": "",
          "type": "bool"
        }
      ],
      "stateMutability": "view",
      "type": "function"
    },
    {
      "inputs": [
        {
          "internalType": "address",
          "name": "owner",
          "type": "address"
        },
        {
          "internalType": "address",
          "name": "operator",
          "type": "address"
        }
      ],
      "name": "isApprovedForAll",
      "outputs": [
        {
          "internalType": "bool",
          "name": "",
          "type": "bool"
        }
      ],
      "stateMutability": "view",
      "type": "function"
    },
    {
      "inputs": [
        {
          "internalType": "uint256",
          "name": "quantity",
          "type": "uint256"
        }
      ],
      "name": "mintNFT",
      "outputs": [],
      "stateMutability": "payable",
      "type": "function"
    },
    {
      "inputs": [
        {
          "internalType": "uint256",
          "name": "quantity",
          "type": "uint256"
        },
        {
          "internalType": "uint256",
          "name": "maxQuantity",
          "type": "uint256"
        },
        {
          "internalType": "bytes",
          "name": "SIGNATURE",
          "type": "bytes"
        }
      ],
      "name": "mintWhitelist",
      "outputs": [],
      "stateMutability": "payable",
      "type": "function"
    },
    {
      "inputs": [],
      "name": "name",
      "outputs": [
        {
          "internalType": "string",
          "name": "",
          "type": "string"
        }
      ],
      "stateMutability": "view",
      "type": "function"
    },
    {
      "inputs": [],
      "name": "owner",
      "outputs": [
        {
          "internalType": "address",
          "name": "",
          "type": "address"
        }
      ],
      "stateMutability": "view",
      "type": "function"
    },
    {
      "inputs": [
        {
          "internalType": "uint256",
          "name": "tokenId",
          "type": "uint256"
        }
      ],
      "name": "ownerOf",
      "outputs": [
        {
          "internalType": "address",
          "name": "",
          "type": "address"
        }
      ],
      "stateMutability": "view",
      "type": "function"
    },
    {
      "inputs": [],
      "name": "publicSaleTimestamp",
      "outputs": [
        {
          "internalType": "uint256",
          "name": "",
          "type": "uint256"
        }
      ],
      "stateMutability": "view",
      "type": "function"
    },
    {
      "inputs": [],
      "name": "renounceOwnership",
      "outputs": [],
      "stateMutability": "nonpayable",
      "type": "function"
    },
    {
      "inputs": [
        {
          "internalType": "address",
          "name": "from",
          "type": "address"
        },
        {
          "internalType": "address",
          "name": "to",
          "type": "address"
        },
        {
          "internalType": "uint256",
          "name": "tokenId",
          "type": "uint256"
        }
      ],
      "name": "safeTransferFrom",
      "outputs": [],
      "stateMutability": "nonpayable",
      "type": "function"
    },
    {
      "inputs": [
        {
          "internalType": "address",
          "name": "from",
          "type": "address"
        },
        {
          "internalType": "address",
          "name": "to",
          "type": "address"
        },
        {
          "internalType": "uint256",
          "name": "tokenId",
          "type": "uint256"
        },
        {
          "internalType": "bytes",
          "name": "_data",
          "type": "bytes"
        }
      ],
      "name": "safeTransferFrom",
      "outputs": [],
      "stateMutability": "nonpayable",
      "type": "function"
    },
    {
      "inputs": [
        {
          "internalType": "address",
          "name": "operator",
          "type": "address"
        },
        {
          "internalType": "bool",
          "name": "approved",
          "type": "bool"
        }
      ],
      "name": "setApprovalForAll",
      "outputs": [],
      "stateMutability": "nonpayable",
      "type": "function"
    },
    {
      "inputs": [
        {
          "internalType": "uint256",
          "name": "_MAX_num",
          "type": "uint256"
        },
        {
          "internalType": "uint256",
          "name": "_WL_STAGE_LIMIT",
          "type": "uint256"
        },
        {
          "internalType": "uint256",
          "name": "_PS_STAGE_LIMIT",
          "type": "uint256"
        },
        {
          "internalType": "uint256",
          "name": "_MAX_PS_ADDRESS_TOKEN",
          "type": "uint256"
        }
      ],
      "name": "setMAX_NFT",
      "outputs": [],
      "stateMutability": "nonpayable",
      "type": "function"
    },
    {
      "inputs": [
        {
          "internalType": "address",
          "name": "_signer",
          "type": "address"
        }
      ],
      "name": "setSigner",
      "outputs": [],
      "stateMutability": "nonpayable",
      "type": "function"
    },
    {
      "inputs": [
        {
          "internalType": "bool",
          "name": "_hasWhitelistSaleStarted",
          "type": "bool"
        },
        {
          "internalType": "uint256",
          "name": "_whitelistSaleTimestamp",
          "type": "uint256"
        },
        {
          "internalType": "bool",
          "name": "_hasPublicSaleStarted",
          "type": "bool"
        },
        {
          "internalType": "uint256",
          "name": "_publicSaleTimestamp",
          "type": "uint256"
        },
        {
          "internalType": "bool",
          "name": "_hasBurnStarted",
          "type": "bool"
        }
      ],
      "name": "setSwitch",
      "outputs": [],
      "stateMutability": "nonpayable",
      "type": "function"
    },
    {
      "inputs": [
        {
          "internalType": "address",
          "name": "_treasury",
          "type": "address"
        }
      ],
      "name": "setTreasury",
      "outputs": [],
      "stateMutability": "nonpayable",
      "type": "function"
    },
    {
      "inputs": [
        {
          "internalType": "string",
          "name": "_tokenURI",
          "type": "string"
        }
      ],
      "name": "setURI",
      "outputs": [],
      "stateMutability": "nonpayable",
      "type": "function"
    },
    {
      "inputs": [
        {
          "internalType": "uint256",
          "name": "_price",
          "type": "uint256"
        }
      ],
      "name": "set_PRICE",
      "outputs": [],
      "stateMutability": "nonpayable",
      "type": "function"
    },
    {
      "inputs": [],
      "name": "signer",
      "outputs": [
        {
          "internalType": "address",
          "name": "",
          "type": "address"
        }
      ],
      "stateMutability": "view",
      "type": "function"
    },
    {
      "inputs": [
        {
          "internalType": "bytes4",
          "name": "interfaceId",
          "type": "bytes4"
        }
      ],
      "name": "supportsInterface",
      "outputs": [
        {
          "internalType": "bool",
          "name": "",
          "type": "bool"
        }
      ],
      "stateMutability": "view",
      "type": "function"
    },
    {
      "inputs": [],
      "name": "symbol",
      "outputs": [
        {
          "internalType": "string",
          "name": "",
          "type": "string"
        }
      ],
      "stateMutability": "view",
      "type": "function"
    },
    {
      "inputs": [
        {
          "internalType": "uint256",
          "name": "index",
          "type": "uint256"
        }
      ],
      "name": "tokenByIndex",
      "outputs": [
        {
          "internalType": "uint256",
          "name": "",
          "type": "uint256"
        }
      ],
      "stateMutability": "view",
      "type": "function"
    },
    {
      "inputs": [
        {
          "internalType": "address",
          "name": "owner",
          "type": "address"
        },
        {
          "internalType": "uint256",
          "name": "index",
          "type": "uint256"
        }
      ],
      "name": "tokenOfOwnerByIndex",
      "outputs": [
        {
          "internalType": "uint256",
          "name": "",
          "type": "uint256"
        }
      ],
      "stateMutability": "view",
      "type": "function"
    },
    {
      "inputs": [
        {
          "internalType": "uint256",
          "name": "tokenId",
          "type": "uint256"
        }
      ],
      "name": "tokenURI",
      "outputs": [
        {
          "internalType": "string",
          "name": "",
          "type": "string"
        }
      ],
      "stateMutability": "view",
      "type": "function"
    },
    {
      "inputs": [],
      "name": "totalSupply",
      "outputs": [
        {
          "internalType": "uint256",
          "name": "",
          "type": "uint256"
        }
      ],
      "stateMutability": "view",
      "type": "function"
    },
    {
      "inputs": [
        {
          "internalType": "address",
          "name": "from",
          "type": "address"
        },
        {
          "internalType": "address",
          "name": "to",
          "type": "address"
        },
        {
          "internalType": "uint256",
          "name": "tokenId",
          "type": "uint256"
        }
      ],
      "name": "transferFrom",
      "outputs": [],
      "stateMutability": "nonpayable",
      "type": "function"
    },
    {
      "inputs": [
        {
          "internalType": "address",
          "name": "newOwner",
          "type": "address"
        }
      ],
      "name": "transferOwnership",
      "outputs": [],
      "stateMutability": "nonpayable",
      "type": "function"
    },
    {
      "inputs": [],
      "name": "treasury",
      "outputs": [
        {
          "internalType": "address",
          "name": "",
          "type": "address"
        }
      ],
      "stateMutability": "view",
      "type": "function"
    },
    {
      "inputs": [
        {
          "internalType": "uint256",
          "name": "maxQuantity",
          "type": "uint256"
        },
        {
          "internalType": "bytes",
          "name": "SIGNATURE",
          "type": "bytes"
        }
      ],
      "name": "verify",
      "outputs": [
        {
          "internalType": "bool",
          "name": "",
          "type": "bool"
        }
      ],
      "stateMutability": "view",
      "type": "function"
    },
    {
      "inputs": [],
      "name": "whitelistSaleTimestamp",
      "outputs": [
        {
          "internalType": "uint256",
          "name": "",
          "type": "uint256"
        }
      ],
      "stateMutability": "view",
      "type": "function"
    },
    {
      "inputs": [],
      "name": "withdrawAll",
      "outputs": [],
      "stateMutability": "payable",
      "type": "function"
    }
  ],
  "transactionHash": "0x33a3de7cb2f4f6aa1e66597dbb57cf10cc1de8b35817200f1f9b79bd93b49e2e",
  "args": [],
  "numDeployments": 1,
  "solcInputHash": "5ed59d767242f11c2893e7339eb876e7",
  "bytecode": "0x6103e7600881905561018f600955600a556002600b5566b1a2bc2ec50000600c5563622e4278600d819055600e55600f805462ffffff19169055610180604052602361012081815290620039f3610140398051620000669160109160209091019062000631565b5060118054735279246e3626cebe71a4c181382a50a71d2a41566001600160a01b03199182168117909255601280549091169091179055348015620000aa57600080fd5b5060405180604001604052806008815260200167534554545644414f60c01b8152506040518060400160405280600381526020016214d15560ea1b81525060405180604001604052806008815260200167534554545644414f60c01b815250604051806040016040528060058152602001640312e302e360dc1b815250620001416200013b6200021360201b60201c565b62000217565b815160209283012081519183019190912060c082815260e08290524660a0818152604080517f8b73c3c69bb8fe3d512ecc4cf759cc79239f7b179b0ffacaa9a75d522b39400f818901819052818301979097526060810195909552608080860193909352308583015280518086039092018252939092019092528051908401209052610100528251620001db916002919085019062000631565b508051620001f190600390602084019062000631565b50506011546200020d91506001600160a01b0316603262000267565b6200080d565b3390565b600080546001600160a01b038381166001600160a01b0319831681178455604051919092169283917f8be0079c531659141344cd1fd0a4f28419497f9722a3daafe3b4186f6b6457e09190a35050565b620002898282604051806020016040528060008152506200028d60201b60201c565b5050565b6200029c8383836001620002a1565b505050565b6001546001600160801b03166001600160a01b038516620002d457604051622e076360e81b815260040160405180910390fd5b83620002f35760405163b562e8dd60e01b815260040160405180910390fd5b62000302600086838762000442565b6001600160a01b038516600081815260056020908152604080832080546001600160801b031981166001600160401b038083168c018116918217680100000000000000006001600160401b031990941690921783900481168c018116909202179091558584526004909252822080546001600160e01b031916909317600160a01b42909216919091021790915581905b85811015620004195760405182906001600160a01b038916906000907fddf252ad1be2c89b69c2b068fc378daa952ba7f163c4a11628f55a4df523b3ef908290a4838015620003ed5750620003eb6000888488620004fc565b155b156200040c576040516368d2bf6b60e11b815260040160405180910390fd5b6001918201910162000392565b50600180546001600160801b0319166001600160801b03929092169190911790555b5050505050565b60005b818110156200043b5760006200045c828562000781565b90506032811015801562000471575060738111155b15620004e6576001600160a01b03861615806200049557506001600160a01b038516155b620004e65760405162461bcd60e51b815260206004820152601b60248201527f534f554c424f554e443a204e6f6e2d5472616e7366657261626c650000000000604482015260640160405180910390fd5b5080620004f381620007d9565b91505062000445565b60006200051d846001600160a01b03166200062b60201b62001a1b1760201c565b156200061f57604051630a85bd0160e11b81526001600160a01b0385169063150b7a02906200055790339089908890889060040162000708565b602060405180830381600087803b1580156200057257600080fd5b505af1925050508015620005a5575060408051601f3d908101601f19168201909252620005a291810190620006d7565b60015b62000604573d808015620005d6576040519150601f19603f3d011682016040523d82523d6000602084013e620005db565b606091505b508051620005fc576040516368d2bf6b60e11b815260040160405180910390fd5b805181602001fd5b6001600160e01b031916630a85bd0160e11b14905062000623565b5060015b949350505050565b3b151590565b8280546200063f906200079c565b90600052602060002090601f016020900481019282620006635760008555620006ae565b82601f106200067e57805160ff1916838001178555620006ae565b82800160010185558215620006ae579182015b82811115620006ae57825182559160200191906001019062000691565b50620006bc929150620006c0565b5090565b5b80821115620006bc5760008155600101620006c1565b600060208284031215620006e9578081fd5b81516001600160e01b03198116811462000701578182fd5b9392505050565b600060018060a01b0380871683526020818716818501528560408501526080606085015284519150816080850152825b82811015620007565785810182015185820160a00152810162000738565b8281111562000768578360a084870101525b5050601f01601f19169190910160a00195945050505050565b60008219821115620007975762000797620007f7565b500190565b600181811c90821680620007b157607f821691505b60208210811415620007d357634e487b7160e01b600052602260045260246000fd5b50919050565b6000600019821415620007f057620007f0620007f7565b5060010190565b634e487b7160e01b600052601160045260246000fd5b60805160a05160c05160e051610100516131a16200085260003960006123e2015260006124310152600061240c01526000612390015260006123b901526131a16000f3fe6080604052600436106102725760003560e01c8063672434821161014f57806392642744116100c1578063e6d7e1341161007a578063e6d7e13414610719578063e6e4f2731461072f578063e985e9c51461074f578063f0f4426014610798578063f2fde38b146107b8578063fdd4b0f0146107d857600080fd5b8063926427441461067157806395d89b41146106845780639dc29fac14610699578063a22cb465146106b9578063b88d4fde146106d9578063c87b56dd146106f957600080fd5b80637cdcc512116101135780637cdcc512146105df578063853828b6146105f557806385852ce4146105fd5780638d859f3e1461061d5780638da5cb5b1461063357806391e299801461065157600080fd5b806367243482146105545780636c19e783146105745780636fdaddf11461059457806370a08231146105aa578063715018a6146105ca57600080fd5b806332a61f5f116101e85780634f6ccce7116101ac5780634f6ccce71461049157806352e96828146104b157806353c27fd2146104c757806361d027b3146104f45780636352211e146105145780636456c2051461053457600080fd5b806332a61f5f146104185780633da30a3014610432578063401dd7161461044857806342842e0e1461045e57806343774ebd1461047e57600080fd5b8063095ea7b31161023a578063095ea7b314610348578063099c70711461036857806318160ddd146103a3578063238ac933146103b857806323b872dd146103d85780632f745c59146103f857600080fd5b806301ffc9a71461027757806302a4e187146102ac57806302fe5305146102ce57806306fdde03146102ee578063081812fc14610310575b600080fd5b34801561028357600080fd5b50610297610292366004612d2a565b6107f7565b60405190151581526020015b60405180910390f35b3480156102b857600080fd5b506102cc6102c7366004612cd4565b610864565b005b3480156102da57600080fd5b506102cc6102e9366004612d62565b6108da565b3480156102fa57600080fd5b50610303610915565b6040516102a39190612fd3565b34801561031c57600080fd5b5061033061032b366004612dce565b6109a7565b6040516001600160a01b0390911681526020016102a3565b34801561035457600080fd5b506102cc610363366004612c43565b6109eb565b34801561037457600080fd5b50610395610383366004612b2e565b60136020526000908152604090205481565b6040519081526020016102a3565b3480156103af57600080fd5b50610395610a74565b3480156103c457600080fd5b50601254610330906001600160a01b031681565b3480156103e457600080fd5b506102cc6103f3366004612b7a565b610a93565b34801561040457600080fd5b50610395610413366004612c43565b610a9e565b34801561042457600080fd5b50600f546102979060ff1681565b34801561043e57600080fd5b50610395600a5481565b34801561045457600080fd5b5061039560095481565b34801561046a57600080fd5b506102cc610479366004612b7a565b610b9a565b6102cc61048c366004612e2a565b610bb5565b34801561049d57600080fd5b506103956104ac366004612dce565b610e54565b3480156104bd57600080fd5b50610395600d5481565b3480156104d357600080fd5b506103956104e2366004612b2e565b60146020526000908152604090205481565b34801561050057600080fd5b50601154610330906001600160a01b031681565b34801561052057600080fd5b5061033061052f366004612dce565b610f00565b34801561054057600080fd5b506102cc61054f366004612dce565b610f12565b34801561056057600080fd5b506102cc61056f366004612c6c565b610f41565b34801561058057600080fd5b506102cc61058f366004612b2e565b61114c565b3480156105a057600080fd5b5061039560085481565b3480156105b657600080fd5b506103956105c5366004612b2e565b6111e5565b3480156105d657600080fd5b506102cc611233565b3480156105eb57600080fd5b50610395600b5481565b6102cc611269565b34801561060957600080fd5b50610297610618366004612de6565b6112c4565b34801561062957600080fd5b50610395600c5481565b34801561063f57600080fd5b506000546001600160a01b0316610330565b34801561065d57600080fd5b50600f546102979062010000900460ff1681565b6102cc61067f366004612dce565b61134e565b34801561069057600080fd5b5061030361161f565b3480156106a557600080fd5b506102cc6106b4366004612c43565b61162e565b3480156106c557600080fd5b506102cc6106d4366004612c1a565b61175b565b3480156106e557600080fd5b506102cc6106f4366004612bb5565b6117f1565b34801561070557600080fd5b50610303610714366004612dce565b61182b565b34801561072557600080fd5b50610395600e5481565b34801561073b57600080fd5b506102cc61074a366004612e77565b6118a7565b34801561075b57600080fd5b5061029761076a366004612b48565b6001600160a01b03918216600090815260076020908152604080832093909416825291909152205460ff1690565b3480156107a457600080fd5b506102cc6107b3366004612b2e565b6118e5565b3480156107c457600080fd5b506102cc6107d3366004612b2e565b611980565b3480156107e457600080fd5b50600f5461029790610100900460ff1681565b60006001600160e01b031982166380ac58cd60e01b148061082857506001600160e01b03198216635b5e139f60e01b145b8061084357506001600160e01b0319821663780e9d6360e01b145b8061085e57506301ffc9a760e01b6001600160e01b03198316145b92915050565b6000546001600160a01b031633146108975760405162461bcd60e51b815260040161088e90612fe6565b60405180910390fd5b600f8054600d95909555600e929092551515620100000262ff0000199215156101000261ff00199515159590951661ffff19909416939093179390931716179055565b6000546001600160a01b031633146109045760405162461bcd60e51b815260040161088e90612fe6565b610910601083836129a1565b505050565b606060028054610924906130a9565b80601f0160208091040260200160405190810160405280929190818152602001828054610950906130a9565b801561099d5780601f106109725761010080835404028352916020019161099d565b820191906000526020600020905b81548152906001019060200180831161098057829003601f168201915b5050505050905090565b60006109b282611a21565b6109cf576040516333d1c03960e21b815260040160405180910390fd5b506000908152600660205260409020546001600160a01b031690565b60006109f682610f00565b9050806001600160a01b0316836001600160a01b03161415610a2b5760405163250fdee360e21b815260040160405180910390fd5b336001600160a01b03821614801590610a4b5750610a49813361076a565b155b15610a69576040516367d9dca160e11b815260040160405180910390fd5b610910838383611a57565b6001546001600160801b03600160801b82048116918116919091031690565b610910838383611ab3565b6000610aa9836111e5565b8210610ac8576040516306ed618760e11b815260040160405180910390fd5b6001546001600160801b0316600080805b83811015610b9457600081815260046020908152604091829020825160608101845290546001600160a01b0381168252600160a01b81046001600160401b031692820192909252600160e01b90910460ff161580159282019290925290610b405750610b8c565b80516001600160a01b031615610b5557805192505b876001600160a01b0316836001600160a01b03161415610b8a5786841415610b835750935061085e92505050565b6001909301925b505b600101610ad9565b50600080fd5b610910838383604051806020016040528060008152506117f1565b600f5460ff161515600114610c035760405162461bcd60e51b815260206004820152601460248201527357484954454c4953545f4e4f545f41435449564560601b604482015260640161088e565b600d54421015610c4d5760405162461bcd60e51b81526020600482015260156024820152744e4f545f494e5f57484954454c4953545f54494d4560581b604482015260640161088e565b600954610c6284610c5c610a74565b90611cdd565b1115610ca45760405162461bcd60e51b815260206004820152601160248201527015d317d4d51051d157d4d3d31117d3d555607a1b604482015260640161088e565b610cae82826112c4565b610cfa5760405162461bcd60e51b815260206004820152601a60248201527f4e4f545f454c494749424c455f464f545f57484954454c495354000000000000604482015260640161088e565b600083118015610d245750336000908152601460205260409020548290610d219085611cdd565b11155b610d705760405162461bcd60e51b815260206004820152601760248201527f455843454544535f4d41585f574c5f5155414e54495459000000000000000000604482015260640161088e565b600c54610d7d9084611cf0565b341015610dc55760405162461bcd60e51b815260206004820152601660248201527508aa8908aa4beac8298aa8abe9c9ea8be8a9c9eaa8e960531b604482015260640161088e565b33600090815260146020526040902054610ddf9084611cdd565b33600081815260146020526040902091909155610dfc9084611cfc565b7f9670c8b300c38cd3db8d3f9429dd902e67f418c4dd193e2497f06d20efc795603384610e27610a74565b604080516001600160a01b03909416845260208401929092529082015260600160405180910390a1505050565b6001546000906001600160801b031681805b82811015610ee657600081815260046020908152604091829020825160608101845290546001600160a01b0381168252600160a01b81046001600160401b031692820192909252600160e01b90910460ff16151591810182905290610edd5785831415610ed65750949350505050565b6001909201915b50600101610e66565b506040516329c8c00760e21b815260040160405180910390fd5b6000610f0b82611d16565b5192915050565b6000546001600160a01b03163314610f3c5760405162461bcd60e51b815260040161088e90612fe6565b600c55565b6000546001600160a01b03163314610f6b5760405162461bcd60e51b815260040161088e90612fe6565b826000805b82811015610fbe57848482818110610f9857634e487b7160e01b600052603260045260246000fd5b9050602002013582610faa919061301b565b915080610fb6816130e4565b915050610f70565b5060085481610fcb610a74565b610fd5919061301b565b11156110155760405162461bcd60e51b815260206004820152600f60248201526e115610d1515114d7d3505617d39195608a1b604482015260640161088e565b60005b828110156111435761108487878381811061104357634e487b7160e01b600052603260045260246000fd5b90506020020160208101906110589190612b2e565b86868481811061107857634e487b7160e01b600052603260045260246000fd5b90506020020135611cfc565b7f9670c8b300c38cd3db8d3f9429dd902e67f418c4dd193e2497f06d20efc795608787838181106110c557634e487b7160e01b600052603260045260246000fd5b90506020020160208101906110da9190612b2e565b8686848181106110fa57634e487b7160e01b600052603260045260246000fd5b90506020020135611109610a74565b604080516001600160a01b03909416845260208401929092529082015260600160405180910390a18061113b816130e4565b915050611018565b50505050505050565b6000546001600160a01b031633146111765760405162461bcd60e51b815260040161088e90612fe6565b6001600160a01b0381166111c35760405162461bcd60e51b815260206004820152601460248201527353455454494e475f5a45524f5f4144445245535360601b604482015260640161088e565b601280546001600160a01b0319166001600160a01b0392909216919091179055565b60006001600160a01b03821661120e576040516323d3ad8160e21b815260040160405180910390fd5b506001600160a01b03166000908152600560205260409020546001600160401b031690565b6000546001600160a01b0316331461125d5760405162461bcd60e51b815260040161088e90612fe6565b6112676000611e3a565b565b6000546001600160a01b031633146112935760405162461bcd60e51b815260040161088e90612fe6565b6011546040516001600160a01b03909116904780156108fc02916000818181858888f1935050505061126757600080fd5b60008061133561132f7f182854de6a51f3818344a7eb784b9d55c1e6d2d20c9f9aea309f5daaaaddfec1336040805160208101939093526001600160a01b03909116908201526060810187905260800160405160208183030381529060405280519060200120611e8a565b84611ed8565b6012546001600160a01b03918216911614949350505050565b3233146113925760405162461bcd60e51b815260206004820152601260248201527110d05313115497d254d7d0d3d395149050d560721b604482015260640161088e565b600f5460ff6101009091041615156001146113e15760405162461bcd60e51b815260206004820152600f60248201526e53414c455f4e4f545f41435449564560881b604482015260640161088e565b600e544210156114265760405162461bcd60e51b815260206004820152601060248201526f4e4f545f494e5f53414c455f54494d4560801b604482015260640161088e565b600c546114339082611cf0565b34101561147b5760405162461bcd60e51b815260206004820152601660248201527508aa8908aa4beac8298aa8abe9c9ea8be8a9c9eaa8e960531b604482015260640161088e565b600a5461148a82610c5c610a74565b11156114cc5760405162461bcd60e51b81526020600482015260116024820152701414d7d4d51051d157d4d3d31117d3d555607a1b604482015260640161088e565b6008546114db82610c5c610a74565b111561151b5760405162461bcd60e51b815260206004820152600f60248201526e115610d1515114d7d3505617d39195608a1b604482015260640161088e565b6000811180156115465750600b54336000908152601360205260409020546115439083611cdd565b11155b6115925760405162461bcd60e51b815260206004820152601760248201527f455843454544535f4d41585f50535f5155414e54495459000000000000000000604482015260640161088e565b336000908152601360205260409020546115ac9082611cdd565b336000818152601360205260409020919091556115c99082611cfc565b7f9670c8b300c38cd3db8d3f9429dd902e67f418c4dd193e2497f06d20efc7956033826115f4610a74565b604080516001600160a01b03909416845260208401929092529082015260600160405180910390a150565b606060038054610924906130a9565b600f5462010000900460ff16151560011461167d5760405162461bcd60e51b815260206004820152600f60248201526e4255524e5f4e4f545f41435449564560881b604482015260640161088e565b6001600160a01b0382163214806116995750611699823361076a565b6116e55760405162461bcd60e51b815260206004820152601d60248201527f43414c4c45525f4e4f545f4f574e45525f4e4f525f415050524f564544000000604482015260640161088e565b816001600160a01b03166116f882610f00565b6001600160a01b03161461174e5760405162461bcd60e51b815260206004820152601960248201527f414444524553535f4e4f545f544f4b454e49445f4f574e455200000000000000604482015260640161088e565b61175781611efc565b5050565b6001600160a01b0382163314156117855760405163b06307db60e01b815260040160405180910390fd5b3360008181526007602090815260408083206001600160a01b03871680855290835292819020805460ff191686151590811790915590519081529192917f17307eab39ab6107e8899845ad3d59bd9653f200f220920489ca2b5937696c31910160405180910390a35050565b6117fc848484611ab3565b611808848484846120ab565b611825576040516368d2bf6b60e11b815260040160405180910390fd5b50505050565b606061183682611a21565b6118755760405162461bcd60e51b815260206004820152601060248201526f544f4b454e5f4e4f545f45584953545360801b604482015260640161088e565b6010611880836121ba565b604051602001611891929190612ef0565b6040516020818303038152906040529050919050565b6000546001600160a01b031633146118d15760405162461bcd60e51b815260040161088e90612fe6565b600893909355600991909155600a55600b55565b6000546001600160a01b0316331461190f5760405162461bcd60e51b815260040161088e90612fe6565b6011546001600160a01b031661195e5760405162461bcd60e51b815260206004820152601460248201527353455454494e475f5a45524f5f4144445245535360601b604482015260640161088e565b601180546001600160a01b0319166001600160a01b0392909216919091179055565b6000546001600160a01b031633146119aa5760405162461bcd60e51b815260040161088e90612fe6565b6001600160a01b038116611a0f5760405162461bcd60e51b815260206004820152602660248201527f4f776e61626c653a206e6577206f776e657220697320746865207a65726f206160448201526564647265737360d01b606482015260840161088e565b611a1881611e3a565b50565b3b151590565b6001546000906001600160801b03168210801561085e575050600090815260046020526040902054600160e01b900460ff161590565b60008281526006602052604080822080546001600160a01b0319166001600160a01b0387811691821790925591518593918516917f8c5be1e5ebec7d5bd14f71427d1e84f3dd0314c0f7b2291e5b200ac8c7c3b92591a4505050565b6000611abe82611d16565b80519091506000906001600160a01b0316336001600160a01b03161480611aec57508151611aec903361076a565b80611b07575033611afc846109a7565b6001600160a01b0316145b905080611b2757604051632ce44b5f60e11b815260040160405180910390fd5b846001600160a01b031682600001516001600160a01b031614611b5c5760405162a1148160e81b815260040160405180910390fd5b6001600160a01b038416611b8357604051633a954ecd60e21b815260040160405180910390fd5b611b9085858560016122d3565b611ba06000848460000151611a57565b6001600160a01b038581166000908152600560209081526040808320805467ffffffffffffffff198082166001600160401b0392831660001901831617909255898616808652838620805493841693831660019081018416949094179055898652600490945282852080546001600160e01b031916909417600160a01b429092169190910217909255908601808352912054909116611c93576001546001600160801b0316811015611c9357825160008281526004602090815260409091208054918601516001600160401b0316600160a01b026001600160e01b03199092166001600160a01b03909316929092171790555b5082846001600160a01b0316866001600160a01b03167fddf252ad1be2c89b69c2b068fc378daa952ba7f163c4a11628f55a4df523b3ef60405160405180910390a45b5050505050565b6000611ce9828461301b565b9392505050565b6000611ce98284613047565b61175782826040518060200160405280600081525061237f565b604080516060810182526000808252602082018190529181019190915260015482906001600160801b0316811015611e2157600081815260046020908152604091829020825160608101845290546001600160a01b0381168252600160a01b81046001600160401b031692820192909252600160e01b90910460ff16151591810182905290611e1f5780516001600160a01b031615611db6579392505050565b5060001901600081815260046020908152604091829020825160608101845290546001600160a01b038116808352600160a01b82046001600160401b031693830193909352600160e01b900460ff1615159281019290925215611e1a579392505050565b611db6565b505b604051636f96cda160e11b815260040160405180910390fd5b600080546001600160a01b038381166001600160a01b0319831681178455604051919092169283917f8be0079c531659141344cd1fd0a4f28419497f9722a3daafe3b4186f6b6457e09190a35050565b600061085e611e9761238c565b8360405161190160f01b6020820152602281018390526042810182905260009060620160405160208183030381529060405280519060200120905092915050565b6000806000611ee7858561247f565b91509150611ef4816124ef565b509392505050565b6000611f0782611d16565b9050611f1b816000015160008460016122d3565b611f2b6000838360000151611a57565b80516001600160a01b039081166000908152600560209081526040808320805467ffffffffffffffff1981166001600160401b0391821660001901821617909155855185168452818420805467ffffffffffffffff60801b198116600160801b9182900484166001908101851690920217909155865188865260049094528285208054600160e01b9588166001600160e01b031990911617600160a01b42909416939093029290921760ff60e01b191693909317905590850180835291205490911661204b576001546001600160801b031681101561204b57815160008281526004602090815260409091208054918501516001600160401b0316600160a01b026001600160e01b03199092166001600160a01b03909316929092171790555b50805160405183916000916001600160a01b03909116907fddf252ad1be2c89b69c2b068fc378daa952ba7f163c4a11628f55a4df523b3ef908390a45050600180546001600160801b03600160801b808304821684018216029116179055565b60006001600160a01b0384163b156121ae57604051630a85bd0160e11b81526001600160a01b0385169063150b7a02906120ef903390899088908890600401612f96565b602060405180830381600087803b15801561210957600080fd5b505af1925050508015612139575060408051601f3d908101601f1916820190925261213691810190612d46565b60015b612194573d808015612167576040519150601f19603f3d011682016040523d82523d6000602084013e61216c565b606091505b50805161218c576040516368d2bf6b60e11b815260040160405180910390fd5b805181602001fd5b6001600160e01b031916630a85bd0160e11b1490506121b2565b5060015b949350505050565b6060816121de5750506040805180820190915260018152600360fc1b602082015290565b8160005b811561220857806121f2816130e4565b91506122019050600a83613033565b91506121e2565b6000816001600160401b0381111561223057634e487b7160e01b600052604160045260246000fd5b6040519080825280601f01601f19166020018201604052801561225a576020820181803683370190505b5090505b84156121b25761226f600183613066565b915061227c600a866130ff565b61228790603061301b565b60f81b8183815181106122aa57634e487b7160e01b600052603260045260246000fd5b60200101906001600160f81b031916908160001a9053506122cc600a86613033565b945061225e565b60005b81811015611cd65760006122ea828561301b565b9050603281101580156122fe575060738111155b1561236c576001600160a01b038616158061232057506001600160a01b038516155b61236c5760405162461bcd60e51b815260206004820152601b60248201527f534f554c424f554e443a204e6f6e2d5472616e7366657261626c650000000000604482015260640161088e565b5080612377816130e4565b9150506122d6565b61091083838360016126f0565b60007f00000000000000000000000000000000000000000000000000000000000000004614156123db57507f000000000000000000000000000000000000000000000000000000000000000090565b50604080517f00000000000000000000000000000000000000000000000000000000000000006020808301919091527f0000000000000000000000000000000000000000000000000000000000000000828401527f000000000000000000000000000000000000000000000000000000000000000060608301524660808301523060a0808401919091528351808403909101815260c0909201909252805191012090565b6000808251604114156124b65760208301516040840151606085015160001a6124aa87828585612885565b945094505050506124e8565b8251604014156124e057602083015160408401516124d5868383612972565b9350935050506124e8565b506000905060025b9250929050565b600081600481111561251157634e487b7160e01b600052602160045260246000fd5b141561251a5750565b600181600481111561253c57634e487b7160e01b600052602160045260246000fd5b141561258a5760405162461bcd60e51b815260206004820152601860248201527f45434453413a20696e76616c6964207369676e61747572650000000000000000604482015260640161088e565b60028160048111156125ac57634e487b7160e01b600052602160045260246000fd5b14156125fa5760405162461bcd60e51b815260206004820152601f60248201527f45434453413a20696e76616c6964207369676e6174757265206c656e67746800604482015260640161088e565b600381600481111561261c57634e487b7160e01b600052602160045260246000fd5b14156126755760405162461bcd60e51b815260206004820152602260248201527f45434453413a20696e76616c6964207369676e6174757265202773272076616c604482015261756560f01b606482015260840161088e565b600481600481111561269757634e487b7160e01b600052602160045260246000fd5b1415611a185760405162461bcd60e51b815260206004820152602260248201527f45434453413a20696e76616c6964207369676e6174757265202776272076616c604482015261756560f01b606482015260840161088e565b6001546001600160801b03166001600160a01b03851661272257604051622e076360e81b815260040160405180910390fd5b836127405760405163b562e8dd60e01b815260040160405180910390fd5b61274d60008683876122d3565b6001600160a01b038516600081815260056020908152604080832080546001600160801b031981166001600160401b038083168c0181169182176801000000000000000067ffffffffffffffff1990941690921783900481168c018116909202179091558584526004909252822080546001600160e01b031916909317600160a01b42909216919091021790915581905b8581101561285f5760405182906001600160a01b038916906000907fddf252ad1be2c89b69c2b068fc378daa952ba7f163c4a11628f55a4df523b3ef908290a4838015612835575061283360008884886120ab565b155b15612853576040516368d2bf6b60e11b815260040160405180910390fd5b600191820191016127de565b50600180546001600160801b0319166001600160801b0392909216919091179055611cd6565b6000807f7fffffffffffffffffffffffffffffff5d576e7357a4501ddfe92f46681b20a08311156128bc5750600090506003612969565b8460ff16601b141580156128d457508460ff16601c14155b156128e55750600090506004612969565b6040805160008082526020820180845289905260ff881692820192909252606081018690526080810185905260019060a0016020604051602081039080840390855afa158015612939573d6000803e3d6000fd5b5050604051601f1901519150506001600160a01b03811661296257600060019250925050612969565b9150600090505b94509492505050565b6000806001600160ff1b03831660ff84901c601b0161299387828885612885565b935093505050935093915050565b8280546129ad906130a9565b90600052602060002090601f0160209004810192826129cf5760008555612a15565b82601f106129e85782800160ff19823516178555612a15565b82800160010185558215612a15579182015b82811115612a155782358255916020019190600101906129fa565b50612a21929150612a25565b5090565b5b80821115612a215760008155600101612a26565b80356001600160a01b0381168114612a5157600080fd5b919050565b60008083601f840112612a67578081fd5b5081356001600160401b03811115612a7d578182fd5b6020830191508360208260051b85010111156124e857600080fd5b80358015158114612a5157600080fd5b600082601f830112612ab8578081fd5b81356001600160401b0380821115612ad257612ad261313f565b604051601f8301601f19908116603f01168101908282118183101715612afa57612afa61313f565b81604052838152866020858801011115612b12578485fd5b8360208701602083013792830160200193909352509392505050565b600060208284031215612b3f578081fd5b611ce982612a3a565b60008060408385031215612b5a578081fd5b612b6383612a3a565b9150612b7160208401612a3a565b90509250929050565b600080600060608486031215612b8e578081fd5b612b9784612a3a565b9250612ba560208501612a3a565b9150604084013590509250925092565b60008060008060808587031215612bca578081fd5b612bd385612a3a565b9350612be160208601612a3a565b92506040850135915060608501356001600160401b03811115612c02578182fd5b612c0e87828801612aa8565b91505092959194509250565b60008060408385031215612c2c578182fd5b612c3583612a3a565b9150612b7160208401612a98565b60008060408385031215612c55578182fd5b612c5e83612a3a565b946020939093013593505050565b60008060008060408587031215612c81578384fd5b84356001600160401b0380821115612c97578586fd5b612ca388838901612a56565b90965094506020870135915080821115612cbb578384fd5b50612cc887828801612a56565b95989497509550505050565b600080600080600060a08688031215612ceb578081fd5b612cf486612a98565b945060208601359350612d0960408701612a98565b925060608601359150612d1e60808701612a98565b90509295509295909350565b600060208284031215612d3b578081fd5b8135611ce981613155565b600060208284031215612d57578081fd5b8151611ce981613155565b60008060208385031215612d74578182fd5b82356001600160401b0380821115612d8a578384fd5b818501915085601f830112612d9d578384fd5b813581811115612dab578485fd5b866020828501011115612dbc578485fd5b60209290920196919550909350505050565b600060208284031215612ddf578081fd5b5035919050565b60008060408385031215612df8578182fd5b8235915060208301356001600160401b03811115612e14578182fd5b612e2085828601612aa8565b9150509250929050565b600080600060608486031215612e3e578081fd5b833592506020840135915060408401356001600160401b03811115612e61578182fd5b612e6d86828701612aa8565b9150509250925092565b60008060008060808587031215612e8c578182fd5b5050823594602084013594506040840135936060013592509050565b60008151808452612ec081602086016020860161307d565b601f01601f19169290920160200192915050565b60008151612ee681856020860161307d565b9290920192915050565b600080845482600182811c915080831680612f0c57607f831692505b6020808410821415612f2c57634e487b7160e01b87526022600452602487fd5b818015612f405760018114612f5157612f7d565b60ff19861689528489019650612f7d565b60008b815260209020885b86811015612f755781548b820152908501908301612f5c565b505084890196505b505050505050612f8d8185612ed4565b95945050505050565b6001600160a01b0385811682528416602082015260408101839052608060608201819052600090612fc990830184612ea8565b9695505050505050565b602081526000611ce96020830184612ea8565b6020808252818101527f4f776e61626c653a2063616c6c6572206973206e6f7420746865206f776e6572604082015260600190565b6000821982111561302e5761302e613113565b500190565b60008261304257613042613129565b500490565b600081600019048311821515161561306157613061613113565b500290565b60008282101561307857613078613113565b500390565b60005b83811015613098578181015183820152602001613080565b838111156118255750506000910152565b600181811c908216806130bd57607f821691505b602082108114156130de57634e487b7160e01b600052602260045260246000fd5b50919050565b60006000198214156130f8576130f8613113565b5060010190565b60008261310e5761310e613129565b500690565b634e487b7160e01b600052601160045260246000fd5b634e487b7160e01b600052601260045260246000fd5b634e487b7160e01b600052604160045260246000fd5b6001600160e01b031981168114611a1857600080fdfea264697066735822122012384d2289ec80e37f32ef4a38436c817d6ae78db6f98f651119a2f36282462564736f6c63430008040033687474703a2f2f6170692e6c696f6e64616f6e66742e636f6d2f4d657461646174612f",
  "devdoc": {
    "kind": "dev",
    "methods": {
      "approve(address,uint256)": {
        "details": "See {IERC721-approve}."
      },
      "balanceOf(address)": {
        "details": "See {IERC721-balanceOf}."
      },
      "getApproved(uint256)": {
        "details": "See {IERC721-getApproved}."
      },
      "isApprovedForAll(address,address)": {
        "details": "See {IERC721-isApprovedForAll}."
      },
      "name()": {
        "details": "See {IERC721Metadata-name}."
      },
      "owner()": {
        "details": "Returns the address of the current owner."
      },
      "ownerOf(uint256)": {
        "details": "See {IERC721-ownerOf}."
      },
      "renounceOwnership()": {
        "details": "Leaves the contract without owner. It will not be possible to call `onlyOwner` functions anymore. Can only be called by the current owner. NOTE: Renouncing ownership will leave the contract without an owner, thereby removing any functionality that is only available to the owner."
      },
      "safeTransferFrom(address,address,uint256)": {
        "details": "See {IERC721-safeTransferFrom}."
      },
      "safeTransferFrom(address,address,uint256,bytes)": {
        "details": "See {IERC721-safeTransferFrom}."
      },
      "setApprovalForAll(address,bool)": {
        "details": "See {IERC721-setApprovalForAll}."
      },
      "supportsInterface(bytes4)": {
        "details": "See {IERC165-supportsInterface}."
      },
      "symbol()": {
        "details": "See {IERC721Metadata-symbol}."
      },
      "tokenByIndex(uint256)": {
        "details": "See {IERC721Enumerable-tokenByIndex}. This read function is O(totalSupply). If calling from a separate contract, be sure to test gas first. It may also degrade with extremely large collection sizes (e.g >> 10000), test for your use case."
      },
      "tokenOfOwnerByIndex(address,uint256)": {
        "details": "See {IERC721Enumerable-tokenOfOwnerByIndex}. This read function is O(totalSupply). If calling from a separate contract, be sure to test gas first. It may also degrade with extremely large collection sizes (e.g >> 10000), test for your use case."
      },
      "tokenURI(uint256)": {
        "details": "See {IERC721Metadata-tokenURI}."
      },
      "totalSupply()": {
        "details": "See {IERC721Enumerable-totalSupply}."
      },
      "transferFrom(address,address,uint256)": {
        "details": "See {IERC721-transferFrom}."
      },
      "transferOwnership(address)": {
        "details": "Transfers ownership of the contract to a new account (`newOwner`). Can only be called by the current owner."
      }
    },
    "version": 1
  },
  "userdoc": {
    "kind": "user",
    "methods": {},
    "version": 1
  },
  "storageLayout": {
    "storage": [
      {
        "astId": 7,
        "contract": "contracts/SETTVDAO.sol:SETTVDAO",
        "label": "_owner",
        "offset": 0,
        "slot": "0",
        "type": "t_address"
      },
      {
        "astId": 2901,
        "contract": "contracts/SETTVDAO.sol:SETTVDAO",
        "label": "_currentIndex",
        "offset": 0,
        "slot": "1",
        "type": "t_uint128"
      },
      {
        "astId": 2903,
        "contract": "contracts/SETTVDAO.sol:SETTVDAO",
        "label": "_burnCounter",
        "offset": 16,
        "slot": "1",
        "type": "t_uint128"
      },
      {
        "astId": 2905,
        "contract": "contracts/SETTVDAO.sol:SETTVDAO",
        "label": "_name",
        "offset": 0,
        "slot": "2",
        "type": "t_string_storage"
      },
      {
        "astId": 2907,
        "contract": "contracts/SETTVDAO.sol:SETTVDAO",
        "label": "_symbol",
        "offset": 0,
        "slot": "3",
        "type": "t_string_storage"
      },
      {
        "astId": 2912,
        "contract": "contracts/SETTVDAO.sol:SETTVDAO",
        "label": "_ownerships",
        "offset": 0,
        "slot": "4",
        "type": "t_mapping(t_uint256,t_struct(TokenOwnership)2892_storage)"
      },
      {
        "astId": 2917,
        "contract": "contracts/SETTVDAO.sol:SETTVDAO",
        "label": "_addressData",
        "offset": 0,
        "slot": "5",
        "type": "t_mapping(t_address,t_struct(AddressData)2899_storage)"
      },
      {
        "astId": 2921,
        "contract": "contracts/SETTVDAO.sol:SETTVDAO",
        "label": "_tokenApprovals",
        "offset": 0,
        "slot": "6",
        "type": "t_mapping(t_uint256,t_address)"
      },
      {
        "astId": 2927,
        "contract": "contracts/SETTVDAO.sol:SETTVDAO",
        "label": "_operatorApprovals",
        "offset": 0,
        "slot": "7",
        "type": "t_mapping(t_address,t_mapping(t_address,t_bool))"
      },
      {
        "astId": 4242,
        "contract": "contracts/SETTVDAO.sol:SETTVDAO",
        "label": "MAX_NFT",
        "offset": 0,
        "slot": "8",
        "type": "t_uint256"
      },
      {
        "astId": 4245,
        "contract": "contracts/SETTVDAO.sol:SETTVDAO",
        "label": "WL_STAGE_LIMIT",
        "offset": 0,
        "slot": "9",
        "type": "t_uint256"
      },
      {
        "astId": 4248,
        "contract": "contracts/SETTVDAO.sol:SETTVDAO",
        "label": "PS_STAGE_LIMIT",
        "offset": 0,
        "slot": "10",
        "type": "t_uint256"
      },
      {
        "astId": 4251,
        "contract": "contracts/SETTVDAO.sol:SETTVDAO",
        "label": "MAX_PS_ADDRESS_TOKEN",
        "offset": 0,
        "slot": "11",
        "type": "t_uint256"
      },
      {
        "astId": 4254,
        "contract": "contracts/SETTVDAO.sol:SETTVDAO",
        "label": "PRICE",
        "offset": 0,
        "slot": "12",
        "type": "t_uint256"
      },
      {
        "astId": 4257,
        "contract": "contracts/SETTVDAO.sol:SETTVDAO",
        "label": "whitelistSaleTimestamp",
        "offset": 0,
        "slot": "13",
        "type": "t_uint256"
      },
      {
        "astId": 4260,
        "contract": "contracts/SETTVDAO.sol:SETTVDAO",
        "label": "publicSaleTimestamp",
        "offset": 0,
        "slot": "14",
        "type": "t_uint256"
      },
      {
        "astId": 4263,
        "contract": "contracts/SETTVDAO.sol:SETTVDAO",
        "label": "hasWhitelistSaleStarted",
        "offset": 0,
        "slot": "15",
        "type": "t_bool"
      },
      {
        "astId": 4266,
        "contract": "contracts/SETTVDAO.sol:SETTVDAO",
        "label": "hasPublicSaleStarted",
        "offset": 1,
        "slot": "15",
        "type": "t_bool"
      },
      {
        "astId": 4269,
        "contract": "contracts/SETTVDAO.sol:SETTVDAO",
        "label": "hasBurnStarted",
        "offset": 2,
        "slot": "15",
        "type": "t_bool"
      },
      {
        "astId": 4272,
        "contract": "contracts/SETTVDAO.sol:SETTVDAO",
        "label": "_baseTokenURI",
        "offset": 0,
        "slot": "16",
        "type": "t_string_storage"
      },
      {
        "astId": 4275,
        "contract": "contracts/SETTVDAO.sol:SETTVDAO",
        "label": "treasury",
        "offset": 0,
        "slot": "17",
        "type": "t_address"
      },
      {
        "astId": 4278,
        "contract": "contracts/SETTVDAO.sol:SETTVDAO",
        "label": "signer",
        "offset": 0,
        "slot": "18",
        "type": "t_address"
      },
      {
        "astId": 4282,
        "contract": "contracts/SETTVDAO.sol:SETTVDAO",
        "label": "hasPSMinted",
        "offset": 0,
        "slot": "19",
        "type": "t_mapping(t_address,t_uint256)"
      },
      {
        "astId": 4286,
        "contract": "contracts/SETTVDAO.sol:SETTVDAO",
        "label": "hasWLMinted",
        "offset": 0,
        "slot": "20",
        "type": "t_mapping(t_address,t_uint256)"
      }
    ],
    "types": {
      "t_address": {
        "encoding": "inplace",
        "label": "address",
        "numberOfBytes": "20"
      },
      "t_bool": {
        "encoding": "inplace",
        "label": "bool",
        "numberOfBytes": "1"
      },
      "t_mapping(t_address,t_bool)": {
        "encoding": "mapping",
        "key": "t_address",
        "label": "mapping(address => bool)",
        "numberOfBytes": "32",
        "value": "t_bool"
      },
      "t_mapping(t_address,t_mapping(t_address,t_bool))": {
        "encoding": "mapping",
        "key": "t_address",
        "label": "mapping(address => mapping(address => bool))",
        "numberOfBytes": "32",
        "value": "t_mapping(t_address,t_bool)"
      },
      "t_mapping(t_address,t_struct(AddressData)2899_storage)": {
        "encoding": "mapping",
        "key": "t_address",
        "label": "mapping(address => struct ERC721A.AddressData)",
        "numberOfBytes": "32",
        "value": "t_struct(AddressData)2899_storage"
      },
      "t_mapping(t_address,t_uint256)": {
        "encoding": "mapping",
        "key": "t_address",
        "label": "mapping(address => uint256)",
        "numberOfBytes": "32",
        "value": "t_uint256"
      },
      "t_mapping(t_uint256,t_address)": {
        "encoding": "mapping",
        "key": "t_uint256",
        "label": "mapping(uint256 => address)",
        "numberOfBytes": "32",
        "value": "t_address"
      },
      "t_mapping(t_uint256,t_struct(TokenOwnership)2892_storage)": {
        "encoding": "mapping",
        "key": "t_uint256",
        "label": "mapping(uint256 => struct ERC721A.TokenOwnership)",
        "numberOfBytes": "32",
        "value": "t_struct(TokenOwnership)2892_storage"
      },
      "t_string_storage": {
        "encoding": "bytes",
        "label": "string",
        "numberOfBytes": "32"
      },
      "t_struct(AddressData)2899_storage": {
        "encoding": "inplace",
        "label": "struct ERC721A.AddressData",
        "members": [
          {
            "astId": 2894,
            "contract": "contracts/SETTVDAO.sol:SETTVDAO",
            "label": "balance",
            "offset": 0,
            "slot": "0",
            "type": "t_uint64"
          },
          {
            "astId": 2896,
            "contract": "contracts/SETTVDAO.sol:SETTVDAO",
            "label": "numberMinted",
            "offset": 8,
            "slot": "0",
            "type": "t_uint64"
          },
          {
            "astId": 2898,
            "contract": "contracts/SETTVDAO.sol:SETTVDAO",
            "label": "numberBurned",
            "offset": 16,
            "slot": "0",
            "type": "t_uint64"
          }
        ],
        "numberOfBytes": "32"
      },
      "t_struct(TokenOwnership)2892_storage": {
        "encoding": "inplace",
        "label": "struct ERC721A.TokenOwnership",
        "members": [
          {
            "astId": 2887,
            "contract": "contracts/SETTVDAO.sol:SETTVDAO",
            "label": "addr",
            "offset": 0,
            "slot": "0",
            "type": "t_address"
          },
          {
            "astId": 2889,
            "contract": "contracts/SETTVDAO.sol:SETTVDAO",
            "label": "startTimestamp",
            "offset": 20,
            "slot": "0",
            "type": "t_uint64"
          },
          {
            "astId": 2891,
            "contract": "contracts/SETTVDAO.sol:SETTVDAO",
            "label": "burned",
            "offset": 28,
            "slot": "0",
            "type": "t_bool"
          }
        ],
        "numberOfBytes": "32"
      },
      "t_uint128": {
        "encoding": "inplace",
        "label": "uint128",
        "numberOfBytes": "16"
      },
      "t_uint256": {
        "encoding": "inplace",
        "label": "uint256",
        "numberOfBytes": "32"
      },
      "t_uint64": {
        "encoding": "inplace",
        "label": "uint64",
        "numberOfBytes": "8"
      }
    }
  }
}